{
  "contractName": "MockCryptoKitties",
  "abi": [
    {
      "constant": true,
      "inputs": [
        {
          "name": "",
          "type": "uint256"
        }
      ],
      "name": "kitties",
      "outputs": [
        {
          "name": "genes",
          "type": "uint256"
        },
        {
          "name": "birthTime",
          "type": "uint256"
        },
        {
          "name": "cooldownIndex",
          "type": "uint256"
        },
        {
          "name": "generation",
          "type": "uint256"
        }
      ],
      "payable": false,
      "stateMutability": "view",
      "type": "function"
    },
    {
      "inputs": [],
      "payable": false,
      "stateMutability": "nonpayable",
      "type": "constructor"
    },
    {
      "constant": true,
      "inputs": [
        {
          "name": "_id",
          "type": "uint256"
        }
      ],
      "name": "getKitty",
      "outputs": [
        {
          "name": "isGestating",
          "type": "bool"
        },
        {
          "name": "isReady",
          "type": "bool"
        },
        {
          "name": "cooldownIndex",
          "type": "uint256"
        },
        {
          "name": "nextActionAt",
          "type": "uint256"
        },
        {
          "name": "siringWithId",
          "type": "uint256"
        },
        {
          "name": "birthTime",
          "type": "uint256"
        },
        {
          "name": "matronId",
          "type": "uint256"
        },
        {
          "name": "sireId",
          "type": "uint256"
        },
        {
          "name": "generation",
          "type": "uint256"
        },
        {
          "name": "genes",
          "type": "uint256"
        }
      ],
      "payable": false,
      "stateMutability": "view",
      "type": "function"
    },
    {
      "constant": false,
      "inputs": [
        {
          "name": "_genes",
          "type": "uint256"
        }
      ],
      "name": "createKitty",
      "outputs": [],
      "payable": false,
      "stateMutability": "nonpayable",
      "type": "function"
    }
  ],
  "bytecode": "0x608060405234801561001057600080fd5b506000608060405190810160405280660462d53c8abac081526020014281526020016000815260200160018152509080600181540180825580915050906001820390600052602060002090600402016000909192909190915060008201518160000155602082015181600101556040820151816002015560608201518160030155505050600060806040519081016040528066173f04069c0cb1815260200142815260200160008152602001600181525090806001815401808255809150509060018203906000526020600020906004020160009091929091909150600082015181600001556020820151816001015560408201518160020155606082015181600301555050506102cc806101266000396000f300608060405260043610610057576000357c0100000000000000000000000000000000000000000000000000000000900463ffffffff1680638cc51eda1461005c578063b0634664146100b2578063e98b7f4d146100df575b600080fd5b34801561006857600080fd5b5061008760048036038101908080359060200190929190505050610167565b6040518085815260200184815260200183815260200182815260200194505050505060405180910390f35b3480156100be57600080fd5b506100dd600480360381019080803590602001909291905050506101a6565b005b3480156100eb57600080fd5b5061010a60048036038101908080359060200190929190505050610225565b604051808b1515151581526020018a1515151581526020018981526020018881526020018781526020018681526020018581526020018481526020018381526020018281526020019a505050505050505050505060405180910390f35b60008181548110151561017657fe5b90600052602060002090600402016000915090508060000154908060010154908060020154908060030154905084565b6000608060405190810160405280838152602001428152602001600081526020016001815250908060018154018082558091505090600182039060005260206000209060040201600090919290919091506000820151816000015560208201518160010155604082015181600201556060820151816003015550505050565b6000806000806000806000806000806000808c81548110151561024457fe5b906000526020600020906004020190506000600182600201546000808560010154600080886003015489600001548696508595508393508292509a509a509a509a509a509a509a509a509a509a505091939597995091939597995600a165627a7a723058206f8b32d49070de3519ed41e96ffb35c24644df4153839fc0f5972ca76a63d01a0029",
  "source": "// contracts/MockCryptoKitties.sol\r\npragma solidity ^0.4.25;\r\n\r\ncontract MockCryptoKitties {\r\n    \r\n    struct Kitty {\r\n        uint256 genes;\r\n        uint256 birthTime;\r\n        uint256 cooldownIndex;\r\n        uint256 generation;\r\n    }\r\n\r\n    Kitty[] public kitties;\r\n\r\n    // Add \"public\" visibility to the constructor\r\n    constructor() public {\r\n        // Initialize with some mock kitties\r\n        kitties.push(Kitty(1234567890123456, block.timestamp, 0, 1)); // Kitty with ID 0\r\n        kitties.push(Kitty(6543210987654321, block.timestamp, 0, 1)); // Kitty with ID 1\r\n    }\r\n\r\n    function getKitty(uint256 _id) external view returns (\r\n        bool isGestating,\r\n        bool isReady,\r\n        uint256 cooldownIndex,\r\n        uint256 nextActionAt,\r\n        uint256 siringWithId,\r\n        uint256 birthTime,\r\n        uint256 matronId,\r\n        uint256 sireId,\r\n        uint256 generation,\r\n        uint256 genes\r\n    ) {\r\n        Kitty storage kitty = kitties[_id];\r\n        return (false, true, kitty.cooldownIndex, 0, 0, kitty.birthTime, 0, 0, kitty.generation, kitty.genes);\r\n    }\r\n\r\n    function createKitty(uint256 _genes) external {\r\n        kitties.push(Kitty(_genes, block.timestamp, 0, 1));\r\n    }\r\n}\r\n",
  "sourcePath": "C:\\Users\\sagar\\Downloads\\blockchain-midterm\\contracts\\MockCryptoKitties.sol",
  "compiler": {
    "name": "solc",
    "version": "0.4.25+commit.59dbf8f1.Emscripten.clang"
  },
  "schemaVersion": "3.4.16",
  "updatedAt": "2024-10-21T04:03:22.343Z",
  "networkType": "ethereum",
  "devdoc": {
    "methods": {}
  },
  "userdoc": {
    "methods": {}
  }
}