{
  "contractName": "ZombieBreeding",
  "abi": [
    {
      "constant": false,
      "inputs": [
        {
          "name": "_approved",
          "type": "address"
        },
        {
          "name": "_tokenId",
          "type": "uint256"
        }
      ],
      "name": "approve",
      "outputs": [],
      "payable": true,
      "stateMutability": "payable",
      "type": "function"
    },
    {
      "constant": false,
      "inputs": [
        {
          "name": "_zombieId",
          "type": "uint256"
        }
      ],
      "name": "levelUp",
      "outputs": [],
      "payable": true,
      "stateMutability": "payable",
      "type": "function"
    },
    {
      "constant": false,
      "inputs": [
        {
          "name": "_zombieId",
          "type": "uint256"
        },
        {
          "name": "_kittyId",
          "type": "uint256"
        }
      ],
      "name": "feedOnKitty",
      "outputs": [],
      "payable": false,
      "stateMutability": "nonpayable",
      "type": "function"
    },
    {
      "constant": true,
      "inputs": [
        {
          "name": "",
          "type": "uint256"
        }
      ],
      "name": "zombies",
      "outputs": [
        {
          "name": "name",
          "type": "string"
        },
        {
          "name": "dna",
          "type": "uint256"
        },
        {
          "name": "level",
          "type": "uint32"
        },
        {
          "name": "readyTime",
          "type": "uint32"
        },
        {
          "name": "winCount",
          "type": "uint16"
        },
        {
          "name": "lossCount",
          "type": "uint16"
        },
        {
          "name": "totalBattles",
          "type": "uint32"
        }
      ],
      "payable": false,
      "stateMutability": "view",
      "type": "function"
    },
    {
      "constant": false,
      "inputs": [
        {
          "name": "_from",
          "type": "address"
        },
        {
          "name": "_to",
          "type": "address"
        },
        {
          "name": "_tokenId",
          "type": "uint256"
        }
      ],
      "name": "transferFrom",
      "outputs": [],
      "payable": true,
      "stateMutability": "payable",
      "type": "function"
    },
    {
      "constant": false,
      "inputs": [],
      "name": "withdraw",
      "outputs": [],
      "payable": false,
      "stateMutability": "nonpayable",
      "type": "function"
    },
    {
      "constant": true,
      "inputs": [
        {
          "name": "_owner",
          "type": "address"
        }
      ],
      "name": "getZombiesByOwner",
      "outputs": [
        {
          "name": "",
          "type": "uint256[]"
        }
      ],
      "payable": false,
      "stateMutability": "view",
      "type": "function"
    },
    {
      "constant": true,
      "inputs": [
        {
          "name": "_owner",
          "type": "address"
        }
      ],
      "name": "getZombiesNotOwnedBy",
      "outputs": [
        {
          "name": "",
          "type": "uint256[]"
        }
      ],
      "payable": false,
      "stateMutability": "view",
      "type": "function"
    },
    {
      "constant": true,
      "inputs": [
        {
          "name": "",
          "type": "uint256"
        }
      ],
      "name": "zombieToOwner",
      "outputs": [
        {
          "name": "",
          "type": "address"
        }
      ],
      "payable": false,
      "stateMutability": "view",
      "type": "function"
    },
    {
      "constant": false,
      "inputs": [
        {
          "name": "_address",
          "type": "address"
        }
      ],
      "name": "setKittyContractAddress",
      "outputs": [],
      "payable": false,
      "stateMutability": "nonpayable",
      "type": "function"
    },
    {
      "constant": false,
      "inputs": [
        {
          "name": "_zombieId",
          "type": "uint256"
        },
        {
          "name": "_newDna",
          "type": "uint256"
        }
      ],
      "name": "changeDna",
      "outputs": [],
      "payable": false,
      "stateMutability": "nonpayable",
      "type": "function"
    },
    {
      "constant": true,
      "inputs": [
        {
          "name": "_tokenId",
          "type": "uint256"
        }
      ],
      "name": "ownerOf",
      "outputs": [
        {
          "name": "",
          "type": "address"
        }
      ],
      "payable": false,
      "stateMutability": "view",
      "type": "function"
    },
    {
      "constant": true,
      "inputs": [],
      "name": "zombieCount",
      "outputs": [
        {
          "name": "",
          "type": "uint256"
        }
      ],
      "payable": false,
      "stateMutability": "view",
      "type": "function"
    },
    {
      "constant": true,
      "inputs": [
        {
          "name": "_owner",
          "type": "address"
        }
      ],
      "name": "balanceOf",
      "outputs": [
        {
          "name": "",
          "type": "uint256"
        }
      ],
      "payable": false,
      "stateMutability": "view",
      "type": "function"
    },
    {
      "constant": false,
      "inputs": [],
      "name": "renounceOwnership",
      "outputs": [],
      "payable": false,
      "stateMutability": "nonpayable",
      "type": "function"
    },
    {
      "constant": false,
      "inputs": [
        {
          "name": "_name",
          "type": "string"
        }
      ],
      "name": "createRandomZombie",
      "outputs": [],
      "payable": true,
      "stateMutability": "payable",
      "type": "function"
    },
    {
      "constant": true,
      "inputs": [],
      "name": "zombiePrice",
      "outputs": [
        {
          "name": "",
          "type": "uint256"
        }
      ],
      "payable": false,
      "stateMutability": "view",
      "type": "function"
    },
    {
      "constant": true,
      "inputs": [],
      "name": "owner",
      "outputs": [
        {
          "name": "",
          "type": "address"
        }
      ],
      "payable": false,
      "stateMutability": "view",
      "type": "function"
    },
    {
      "constant": true,
      "inputs": [],
      "name": "isOwner",
      "outputs": [
        {
          "name": "",
          "type": "bool"
        }
      ],
      "payable": false,
      "stateMutability": "view",
      "type": "function"
    },
    {
      "constant": true,
      "inputs": [],
      "name": "getTopZombies",
      "outputs": [
        {
          "name": "",
          "type": "uint256[]"
        }
      ],
      "payable": false,
      "stateMutability": "view",
      "type": "function"
    },
    {
      "constant": false,
      "inputs": [
        {
          "name": "_zombieId",
          "type": "uint256"
        },
        {
          "name": "_newName",
          "type": "string"
        }
      ],
      "name": "changeName",
      "outputs": [],
      "payable": false,
      "stateMutability": "nonpayable",
      "type": "function"
    },
    {
      "constant": false,
      "inputs": [
        {
          "name": "_fee",
          "type": "uint256"
        }
      ],
      "name": "setLevelUpFee",
      "outputs": [],
      "payable": false,
      "stateMutability": "nonpayable",
      "type": "function"
    },
    {
      "constant": false,
      "inputs": [
        {
          "name": "_zombieId",
          "type": "uint256"
        },
        {
          "name": "_targetId",
          "type": "uint256"
        }
      ],
      "name": "attack",
      "outputs": [],
      "payable": false,
      "stateMutability": "nonpayable",
      "type": "function"
    },
    {
      "constant": false,
      "inputs": [
        {
          "name": "newOwner",
          "type": "address"
        }
      ],
      "name": "transferOwnership",
      "outputs": [],
      "payable": false,
      "stateMutability": "nonpayable",
      "type": "function"
    },
    {
      "anonymous": false,
      "inputs": [
        {
          "indexed": false,
          "name": "zombieId",
          "type": "uint256"
        },
        {
          "indexed": false,
          "name": "name",
          "type": "string"
        },
        {
          "indexed": false,
          "name": "dna",
          "type": "uint256"
        }
      ],
      "name": "NewZombie",
      "type": "event"
    },
    {
      "anonymous": false,
      "inputs": [
        {
          "indexed": true,
          "name": "_from",
          "type": "address"
        },
        {
          "indexed": true,
          "name": "_to",
          "type": "address"
        },
        {
          "indexed": true,
          "name": "_tokenId",
          "type": "uint256"
        }
      ],
      "name": "Transfer",
      "type": "event"
    },
    {
      "anonymous": false,
      "inputs": [
        {
          "indexed": true,
          "name": "_owner",
          "type": "address"
        },
        {
          "indexed": true,
          "name": "_approved",
          "type": "address"
        },
        {
          "indexed": true,
          "name": "_tokenId",
          "type": "uint256"
        }
      ],
      "name": "Approval",
      "type": "event"
    },
    {
      "anonymous": false,
      "inputs": [
        {
          "indexed": false,
          "name": "winnerId",
          "type": "uint256"
        },
        {
          "indexed": false,
          "name": "loserId",
          "type": "uint256"
        },
        {
          "indexed": false,
          "name": "didWin",
          "type": "bool"
        }
      ],
      "name": "AttackResult",
      "type": "event"
    },
    {
      "anonymous": false,
      "inputs": [
        {
          "indexed": true,
          "name": "previousOwner",
          "type": "address"
        },
        {
          "indexed": true,
          "name": "newOwner",
          "type": "address"
        }
      ],
      "name": "OwnershipTransferred",
      "type": "event"
    },
    {
      "constant": false,
      "inputs": [
        {
          "name": "_zombieId1",
          "type": "uint256"
        },
        {
          "name": "_zombieId2",
          "type": "uint256"
        }
      ],
      "name": "breedZombies",
      "outputs": [],
      "payable": false,
      "stateMutability": "nonpayable",
      "type": "function"
    }
  ],
  "bytecode": "0x60806040526010600155600154600a0a60025560006003556000600555662386f26fc1000060085566038d7ea4c68000600a556000600b556046600c55336000806101000a81548173ffffffffffffffffffffffffffffffffffffffff021916908373ffffffffffffffffffffffffffffffffffffffff1602179055506000809054906101000a900473ffffffffffffffffffffffffffffffffffffffff1673ffffffffffffffffffffffffffffffffffffffff16600073ffffffffffffffffffffffffffffffffffffffff167f8be0079c531659141344cd1fd0a4f28419497f9722a3daafe3b4186f6b6457e060405160405180910390a3612ffd806101076000396000f300608060405260043610610149576000357c0100000000000000000000000000000000000000000000000000000000900463ffffffff168063095ea7b31461014e5780630ce90ec21461018e57806317a7f4cc146101ae5780632052465e146101e557806323b872dd146102e95780633ccfd60b146103495780634412e104146103605780634b5a2c4d146103f8578063528b7b8f146104905780635f4623f1146104fd5780635faf2880146105405780636352211e1461057757806363721d6b146105e457806370a082311461060f578063715018a6146106665780637bff0a011461067d5780637dea2673146106d957806383d404d8146107105780638da5cb5b1461073b5780638f32d59b14610792578063a501e312146107c1578063c39cbef11461082d578063ccf670f814610872578063e1fa76381461089f578063f2fde38b146108d6575b600080fd5b61018c600480360381019080803573ffffffffffffffffffffffffffffffffffffffff16906020019092919080359060200190929190505050610919565b005b6101ac60048036038101908080359060200190929190505050610aa2565b005b3480156101ba57600080fd5b506101e36004803603810190808035906020019092919080359060200190929190505050610b3d565b005b3480156101f157600080fd5b5061021060048036038101908080359060200190929190505050610d5e565b60405180806020018881526020018763ffffffff1663ffffffff1681526020018663ffffffff1663ffffffff1681526020018561ffff1661ffff1681526020018461ffff1661ffff1681526020018363ffffffff1663ffffffff168152602001828103825289818151815260200191508051906020019080838360005b838110156102a857808201518184015260208101905061028d565b50505050905090810190601f1680156102d55780820380516001836020036101000a031916815260200191505b509850505050505050505060405180910390f35b610347600480360381019080803573ffffffffffffffffffffffffffffffffffffffff169060200190929190803573ffffffffffffffffffffffffffffffffffffffff16906020019092919080359060200190929190505050610e93565b005b34801561035557600080fd5b5061035e61101e565b005b34801561036c57600080fd5b506103a1600480360381019080803573ffffffffffffffffffffffffffffffffffffffff16906020019092919050505061109e565b6040518080602001828103825283818151815260200191508051906020019060200280838360005b838110156103e45780820151818401526020810190506103c9565b505050509050019250505060405180910390f35b34801561040457600080fd5b50610439600480360381019080803573ffffffffffffffffffffffffffffffffffffffff1690602001909291905050506111d0565b6040518080602001828103825283818151815260200191508051906020019060200280838360005b8381101561047c578082015181840152602081019050610461565b505050509050019250505060405180910390f35b34801561049c57600080fd5b506104bb600480360381019080803590602001909291905050506112c9565b604051808273ffffffffffffffffffffffffffffffffffffffff1673ffffffffffffffffffffffffffffffffffffffff16815260200191505060405180910390f35b34801561050957600080fd5b5061053e600480360381019080803573ffffffffffffffffffffffffffffffffffffffff1690602001909291905050506112fc565b005b34801561054c57600080fd5b506105756004803603810190808035906020019092919080359060200190929190505050611353565b005b34801561058357600080fd5b506105a26004803603810190808035906020019092919050505061149e565b604051808273ffffffffffffffffffffffffffffffffffffffff1673ffffffffffffffffffffffffffffffffffffffff16815260200191505060405180910390f35b3480156105f057600080fd5b506105f96114db565b6040518082815260200191505060405180910390f35b34801561061b57600080fd5b50610650600480360381019080803573ffffffffffffffffffffffffffffffffffffffff1690602001909291905050506114e1565b6040518082815260200191505060405180910390f35b34801561067257600080fd5b5061067b61152a565b005b6106d7600480360381019080803590602001908201803590602001908080601f01602080910402602001604051908101604052809392919081815260200183838082843782019150505050505091929192905050506115fc565b005b3480156106e557600080fd5b5061070e60048036038101908080359060200190929190803590602001909291905050506116a1565b005b34801561071c57600080fd5b506107256118f4565b6040518082815260200191505060405180910390f35b34801561074757600080fd5b506107506118fa565b604051808273ffffffffffffffffffffffffffffffffffffffff1673ffffffffffffffffffffffffffffffffffffffff16815260200191505060405180910390f35b34801561079e57600080fd5b506107a7611923565b604051808215151515815260200191505060405180910390f35b3480156107cd57600080fd5b506107d661197a565b6040518080602001828103825283818151815260200191508051906020019060200280838360005b838110156108195780820151818401526020810190506107fe565b505050509050019250505060405180910390f35b34801561083957600080fd5b5061087060048036038101908080359060200190929190803590602001908201803590602001919091929391929390505050611c35565b005b34801561087e57600080fd5b5061089d60048036038101908080359060200190929190505050611d8c565b005b3480156108ab57600080fd5b506108d46004803603810190808035906020019092919080359060200190929190505050611da9565b005b3480156108e257600080fd5b50610917600480360381019080803573ffffffffffffffffffffffffffffffffffffffff1690602001909291905050506121bf565b005b806006600082815260200190815260200160002060009054906101000a900473ffffffffffffffffffffffffffffffffffffffff1673ffffffffffffffffffffffffffffffffffffffff163373ffffffffffffffffffffffffffffffffffffffff161415156109f0576040517f08c379a00000000000000000000000000000000000000000000000000000000081526004018080602001828103825260198152602001807f596f75206d757374206f776e2074686973207a6f6d6269652e0000000000000081525060200191505060405180910390fd5b82600d600084815260200190815260200160002060006101000a81548173ffffffffffffffffffffffffffffffffffffffff021916908373ffffffffffffffffffffffffffffffffffffffff160217905550818373ffffffffffffffffffffffffffffffffffffffff163373ffffffffffffffffffffffffffffffffffffffff167f8c5be1e5ebec7d5bd14f71427d1e84f3dd0314c0f7b2291e5b200ac8c7c3b92560405160405180910390a4505050565b600a5434141515610ab257600080fd5b610afc6001600483815481101515610ac657fe5b906000526020600020906003020160020160009054906101000a900463ffffffff1663ffffffff166121de90919063ffffffff16565b600482815481101515610b0b57fe5b906000526020600020906003020160020160006101000a81548163ffffffff021916908363ffffffff16021790555050565b6000600960009054906101000a900473ffffffffffffffffffffffffffffffffffffffff1673ffffffffffffffffffffffffffffffffffffffff1663e98b7f4d836040518263ffffffff167c01000000000000000000000000000000000000000000000000000000000281526004018082815260200191505061014060405180830381600087803b158015610bd157600080fd5b505af1158015610be5573d6000803e3d6000fd5b505050506040513d610140811015610bfc57600080fd5b810190808051906020019092919080519060200190929190805190602001909291908051906020019092919080519060200190929190805190602001909291908051906020019092919080519060200190929190805190602001909291908051906020019092919050505090919293949596979850909192939495969750909192939495965090919293949550909192939450909192935090919250909150905080915050600081111515610d19576040517f08c379a00000000000000000000000000000000000000000000000000000000081526004018080602001828103825260148152602001807f4b6974747920646f6573206e6f7420657869737400000000000000000000000081525060200191505060405180910390fd5b610d5983826040805190810160405280600581526020017f6b69747479000000000000000000000000000000000000000000000000000000815250612208565b505050565b600481815481101515610d6d57fe5b9060005260206000209060030201600091509050806000018054600181600116156101000203166002900480601f016020809104026020016040519081016040528092919081815260200182805460018160011615610100020316600290048015610e195780601f10610dee57610100808354040283529160200191610e19565b820191906000526020600020905b815481529060010190602001808311610dfc57829003601f168201915b5050505050908060010154908060020160009054906101000a900463ffffffff16908060020160049054906101000a900463ffffffff16908060020160089054906101000a900461ffff169080600201600a9054906101000a900461ffff169080600201600c9054906101000a900463ffffffff16905087565b3373ffffffffffffffffffffffffffffffffffffffff166006600083815260200190815260200160002060009054906101000a900473ffffffffffffffffffffffffffffffffffffffff1673ffffffffffffffffffffffffffffffffffffffff161480610f5e57503373ffffffffffffffffffffffffffffffffffffffff16600d600083815260200190815260200160002060009054906101000a900473ffffffffffffffffffffffffffffffffffffffff1673ffffffffffffffffffffffffffffffffffffffff16145b1515610fd2576040517f08c379a00000000000000000000000000000000000000000000000000000000081526004018080602001828103825260208152602001807f43616c6c6572206973206e6f74206f776e6572206e6f7220617070726f76656481525060200191505060405180910390fd5b600073ffffffffffffffffffffffffffffffffffffffff168273ffffffffffffffffffffffffffffffffffffffff161415151561100e57600080fd5b611019838383612587565b505050565b6000611028611923565b151561103357600080fd5b61103b6118fa565b90508073ffffffffffffffffffffffffffffffffffffffff166108fc3073ffffffffffffffffffffffffffffffffffffffff16319081150290604051600060405180830381858888f1935050505015801561109a573d6000803e3d6000fd5b5050565b606080600080600760008673ffffffffffffffffffffffffffffffffffffffff1673ffffffffffffffffffffffffffffffffffffffff168152602001908152602001600020546040519080825280602002602001820160405280156111125781602001602082028038833980820191505090505b50925060009150600090505b6004805490508110156111c5578473ffffffffffffffffffffffffffffffffffffffff166006600083815260200190815260200160002060009054906101000a900473ffffffffffffffffffffffffffffffffffffffff1673ffffffffffffffffffffffffffffffffffffffff1614156111b8578083838151811015156111a157fe5b906020019060200201818152505081806001019250505b808060010191505061111e565b829350505050919050565b60608060008060048054905060405190808252806020026020018201604052801561120a5781602001602082028038833980820191505090505b50925060009150600090505b6004805490508110156112be578473ffffffffffffffffffffffffffffffffffffffff166006600083815260200190815260200160002060009054906101000a900473ffffffffffffffffffffffffffffffffffffffff1673ffffffffffffffffffffffffffffffffffffffff161415156112b15780838381518110151561129a57fe5b906020019060200201818152505081806001019250505b8080600101915050611216565b829350505050919050565b60066020528060005260406000206000915054906101000a900473ffffffffffffffffffffffffffffffffffffffff1681565b611304611923565b151561130f57600080fd5b80600960006101000a81548173ffffffffffffffffffffffffffffffffffffffff021916908373ffffffffffffffffffffffffffffffffffffffff16021790555050565b6014828160048281548110151561136657fe5b906000526020600020906003020160020160009054906101000a900463ffffffff1663ffffffff161015151561139b57600080fd5b836006600082815260200190815260200160002060009054906101000a900473ffffffffffffffffffffffffffffffffffffffff1673ffffffffffffffffffffffffffffffffffffffff163373ffffffffffffffffffffffffffffffffffffffff16141515611472576040517f08c379a00000000000000000000000000000000000000000000000000000000081526004018080602001828103825260198152602001807f596f75206d757374206f776e2074686973207a6f6d6269652e0000000000000081525060200191505060405180910390fd5b8360048681548110151561148257fe5b9060005260206000209060030201600101819055505050505050565b60006006600083815260200190815260200160002060009054906101000a900473ffffffffffffffffffffffffffffffffffffffff169050919050565b60055481565b6000600760008373ffffffffffffffffffffffffffffffffffffffff1673ffffffffffffffffffffffffffffffffffffffff168152602001908152602001600020549050919050565b611532611923565b151561153d57600080fd5b600073ffffffffffffffffffffffffffffffffffffffff166000809054906101000a900473ffffffffffffffffffffffffffffffffffffffff1673ffffffffffffffffffffffffffffffffffffffff167f8be0079c531659141344cd1fd0a4f28419497f9722a3daafe3b4186f6b6457e060405160405180910390a360008060006101000a81548173ffffffffffffffffffffffffffffffffffffffff021916908373ffffffffffffffffffffffffffffffffffffffff160217905550565b600060085434141515611677576040517f08c379a000000000000000000000000000000000000000000000000000000000815260040180806020018281038252601a8152602001807f496e636f72726563742045746865722076616c75652073656e7400000000000081525060200191505060405180910390fd5b611680826127f4565b905060648181151561168e57fe5b068103905061169d82826128e2565b5050565b60008060006060856006600082815260200190815260200160002060009054906101000a900473ffffffffffffffffffffffffffffffffffffffff1673ffffffffffffffffffffffffffffffffffffffff163373ffffffffffffffffffffffffffffffffffffffff1614151561177f576040517f08c379a00000000000000000000000000000000000000000000000000000000081526004018080602001828103825260198152602001807f596f75206d757374206f776e2074686973207a6f6d6269652e0000000000000081525060200191505060405180910390fd5b856006600082815260200190815260200160002060009054906101000a900473ffffffffffffffffffffffffffffffffffffffff1673ffffffffffffffffffffffffffffffffffffffff163373ffffffffffffffffffffffffffffffffffffffff16141515611856576040517f08c379a00000000000000000000000000000000000000000000000000000000081526004018080602001828103825260198152602001807f596f75206d757374206f776e2074686973207a6f6d6269652e0000000000000081525060200191505060405180910390fd5b60048881548110151561186557fe5b9060005260206000209060030201955060048781548110151561188457fe5b906000526020600020906003020194506118a686600101548660010154612bf5565b93506040805190810160405280600a81526020017f426162795a6f6d6269650000000000000000000000000000000000000000000081525092506118ea83856128e2565b5050505050505050565b60085481565b60008060009054906101000a900473ffffffffffffffffffffffffffffffffffffffff16905090565b60008060009054906101000a900473ffffffffffffffffffffffffffffffffffffffff1673ffffffffffffffffffffffffffffffffffffffff163373ffffffffffffffffffffffffffffffffffffffff1614905090565b6060600060606000806000806000806000806000806004805490509b508b6040519080825280602002602001820160405280156119c65781602001602082028038833980820191505090505b509a50600099505b8b8a1015611a0057898b8b8151811015156119e557fe5b906020019060200201818152505089806001019a50506119ce565b600098505b60018c03891015611c23576001890197505b8b881015611c165760048b8a815181101515611a2f57fe5b90602001906020020151815481101515611a4557fe5b906000526020600020906003020160020160089054906101000a900461ffff1661ffff16965060048b8a815181101515611a7b57fe5b90602001906020020151815481101515611a9157fe5b9060005260206000209060030201600201600a9054906101000a900461ffff1661ffff16955060048b89815181101515611ac757fe5b90602001906020020151815481101515611add57fe5b906000526020600020906003020160020160089054906101000a900461ffff1661ffff16945060048b89815181101515611b1357fe5b90602001906020020151815481101515611b2957fe5b9060005260206000209060030201600201600a9054906101000a900461ffff1661ffff16935060008614611b6b578560648802811515611b6557fe5b04611b70565b606487025b925060008414611b8e578360648602811515611b8857fe5b04611b93565b606485025b915082821115611c09578a89815181101515611bab57fe5b9060200190602002015190508a88815181101515611bc557fe5b906020019060200201518b8a815181101515611bdd57fe5b9060200190602002018181525050808b89815181101515611bfa57fe5b90602001906020020181815250505b8780600101985050611a17565b8880600101995050611a05565b8a9c5050505050505050505050505090565b60028381600482815481101515611c4857fe5b906000526020600020906003020160020160009054906101000a900463ffffffff1663ffffffff1610151515611c7d57600080fd5b846006600082815260200190815260200160002060009054906101000a900473ffffffffffffffffffffffffffffffffffffffff1673ffffffffffffffffffffffffffffffffffffffff163373ffffffffffffffffffffffffffffffffffffffff16141515611d54576040517f08c379a00000000000000000000000000000000000000000000000000000000081526004018080602001828103825260198152602001807f596f75206d757374206f776e2074686973207a6f6d6269652e0000000000000081525060200191505060405180910390fd5b8484600488815481101515611d6557fe5b90600052602060002090600302016000019190611d83929190612eac565b50505050505050565b611d94611923565b1515611d9f57600080fd5b80600a8190555050565b6000806000846006600082815260200190815260200160002060009054906101000a900473ffffffffffffffffffffffffffffffffffffffff1673ffffffffffffffffffffffffffffffffffffffff163373ffffffffffffffffffffffffffffffffffffffff16141515611e85576040517f08c379a00000000000000000000000000000000000000000000000000000000081526004018080602001828103825260198152602001807f596f75206d757374206f776e2074686973207a6f6d6269652e0000000000000081525060200191505060405180910390fd5b600486815481101515611e9457fe5b90600052602060002090600302019350600485815481101515611eb357fe5b90600052602060002090600302019250611ecc84612c31565b1515611f66576040517f08c379a00000000000000000000000000000000000000000000000000000000081526004018080602001828103825260248152602001807f596f7572207a6f6d626965206973206e6f7420726561647920666f722061747481526020017f61636b2e0000000000000000000000000000000000000000000000000000000081525060400191505060405180910390fd5b611f706064612c58565b9150600c54821115156120795783600201600881819054906101000a900461ffff168092919060010191906101000a81548161ffff021916908361ffff1602179055505083600201600081819054906101000a900463ffffffff168092919060010191906101000a81548163ffffffff021916908363ffffffff1602179055505082600201600a81819054906101000a900461ffff168092919060010191906101000a81548161ffff021916908361ffff160217905550507f62e95de997a5e59baaf3b3561de85a4b33ba194659ced4daeb93523e0dd27a65868660016040518084815260200183815260200182151515158152602001935050505060405180910390a1612134565b83600201600a81819054906101000a900461ffff168092919060010191906101000a81548161ffff021916908361ffff1602179055505082600201600881819054906101000a900461ffff168092919060010191906101000a81548161ffff021916908361ffff160217905550507f62e95de997a5e59baaf3b3561de85a4b33ba194659ced4daeb93523e0dd27a65858760006040518084815260200183815260200182151515158152602001935050505060405180910390a15b83600201600c81819054906101000a900463ffffffff168092919060010191906101000a81548163ffffffff021916908363ffffffff1602179055505082600201600c81819054906101000a900463ffffffff168092919060010191906101000a81548163ffffffff021916908363ffffffff160217905550506121b784612d51565b505050505050565b6121c7611923565b15156121d257600080fd5b6121db81612d7b565b50565b60008082840190508363ffffffff168163ffffffff16101515156121fe57fe5b8091505092915050565b600080846006600082815260200190815260200160002060009054906101000a900473ffffffffffffffffffffffffffffffffffffffff1673ffffffffffffffffffffffffffffffffffffffff163373ffffffffffffffffffffffffffffffffffffffff161415156122e2576040517f08c379a00000000000000000000000000000000000000000000000000000000081526004018080602001828103825260198152602001807f596f75206d757374206f776e2074686973207a6f6d6269652e0000000000000081525060200191505060405180910390fd5b6004868154811015156122f157fe5b9060005260206000209060030201925061230a83612c31565b151561237e576040517f08c379a00000000000000000000000000000000000000000000000000000000081526004018080602001828103825260188152602001807f5a6f6d626965206973206e6f74207265616479207965742e000000000000000081525060200191505060405180910390fd5b6002548581151561238b57fe5b0694506002858460010154018115156123a057fe5b04915060405160200180807f6b6974747900000000000000000000000000000000000000000000000000000081525060050190506040516020818303038152906040526040518082805190602001908083835b60208310151561241857805182526020820191506020810190506020830392506123f3565b6001836020036101000a038019825116818451168082178552505050505050905001915050604051809103902060001916846040516020018082805190602001908083835b602083101515612482578051825260208201915060208101905060208303925061245d565b6001836020036101000a0380198251168184511680821785525050505050509050019150506040516020818303038152906040526040518082805190602001908083835b6020831015156124eb57805182526020820191506020810190506020830392506124c6565b6001836020036101000a038019825116818451168082178552505050505050905001915050604051809103902060001916141561253757606360648381151561253057fe5b0683030191505b6125766040805190810160405280600681526020017f4e6f4e616d650000000000000000000000000000000000000000000000000000815250836128e2565b61257f83612d51565b505050505050565b600073ffffffffffffffffffffffffffffffffffffffff168273ffffffffffffffffffffffffffffffffffffffff16141515156125c357600080fd5b6126166001600760008573ffffffffffffffffffffffffffffffffffffffff1673ffffffffffffffffffffffffffffffffffffffff16815260200190815260200160002054612e7590919063ffffffff16565b600760008473ffffffffffffffffffffffffffffffffffffffff1673ffffffffffffffffffffffffffffffffffffffff168152602001908152602001600020819055506126ac6001600760008673ffffffffffffffffffffffffffffffffffffffff1673ffffffffffffffffffffffffffffffffffffffff16815260200190815260200160002054612e9390919063ffffffff16565b600760008573ffffffffffffffffffffffffffffffffffffffff1673ffffffffffffffffffffffffffffffffffffffff16815260200190815260200160002081905550816006600083815260200190815260200160002060006101000a81548173ffffffffffffffffffffffffffffffffffffffff021916908373ffffffffffffffffffffffffffffffffffffffff1602179055506000600d600083815260200190815260200160002060006101000a81548173ffffffffffffffffffffffffffffffffffffffff021916908373ffffffffffffffffffffffffffffffffffffffff160217905550808273ffffffffffffffffffffffffffffffffffffffff168473ffffffffffffffffffffffffffffffffffffffff167fddf252ad1be2c89b69c2b068fc378daa952ba7f163c4a11628f55a4df523b3ef60405160405180910390a4505050565b600080826040516020018082805190602001908083835b602083101515612830578051825260208201915060208101905060208303925061280b565b6001836020036101000a0380198251168184511680821785525050505050509050019150506040516020818303038152906040526040518082805190602001908083835b6020831015156128995780518252602082019150602081019050602083039250612874565b6001836020036101000a0380198251168184511680821785525050505050509050019150506040518091039020600190049050600254818115156128d957fe5b06915050919050565b60006001600460e060405190810160405280868152602001858152602001600163ffffffff168152602001600354420163ffffffff168152602001600061ffff168152602001600061ffff168152602001600063ffffffff16815250908060018154018082558091505090600182039060005260206000209060030201600090919290919091506000820151816000019080519060200190612985929190612f2c565b506020820151816001015560408201518160020160006101000a81548163ffffffff021916908363ffffffff16021790555060608201518160020160046101000a81548163ffffffff021916908363ffffffff16021790555060808201518160020160086101000a81548161ffff021916908361ffff16021790555060a082015181600201600a6101000a81548161ffff021916908361ffff16021790555060c082015181600201600c6101000a81548163ffffffff021916908363ffffffff1602179055505050039050336006600083815260200190815260200160002060006101000a81548173ffffffffffffffffffffffffffffffffffffffff021916908373ffffffffffffffffffffffffffffffffffffffff160217905550612af56001600760003373ffffffffffffffffffffffffffffffffffffffff1673ffffffffffffffffffffffffffffffffffffffff16815260200190815260200160002054612e7590919063ffffffff16565b600760003373ffffffffffffffffffffffffffffffffffffffff1673ffffffffffffffffffffffffffffffffffffffff168152602001908152602001600020819055506004805490506005819055507f88f026aacbbecc90c18411df4b1185fd8d9be2470f1962f192bf84a27d0704b78184846040518084815260200180602001838152602001828103825284818151815260200191508051906020019080838360005b83811015612bb4578082015181840152602081019050612b99565b50505050905090810190601f168015612be15780820380516001836020036101000a031916815260200191505b5094505050505060405180910390a1505050565b60008060006305f5e10085811515612c0957fe5b0491506305f5e10084811515612c1b57fe5b069050806305f5e1008302019250505092915050565b6000428260020160049054906101000a900463ffffffff1663ffffffff1611159050919050565b6000600b60008154809291906001019190505550814233600b54604051602001808481526020018373ffffffffffffffffffffffffffffffffffffffff1673ffffffffffffffffffffffffffffffffffffffff166c0100000000000000000000000002815260140182815260200193505050506040516020818303038152906040526040518082805190602001908083835b602083101515612d0f5780518252602082019150602081019050602083039250612cea565b6001836020036101000a038019825116818451168082178552505050505050905001915050604051809103902060019004811515612d4957fe5b069050919050565b60035442018160020160046101000a81548163ffffffff021916908363ffffffff16021790555050565b600073ffffffffffffffffffffffffffffffffffffffff168173ffffffffffffffffffffffffffffffffffffffff1614151515612db757600080fd5b8073ffffffffffffffffffffffffffffffffffffffff166000809054906101000a900473ffffffffffffffffffffffffffffffffffffffff1673ffffffffffffffffffffffffffffffffffffffff167f8be0079c531659141344cd1fd0a4f28419497f9722a3daafe3b4186f6b6457e060405160405180910390a3806000806101000a81548173ffffffffffffffffffffffffffffffffffffffff021916908373ffffffffffffffffffffffffffffffffffffffff16021790555050565b6000808284019050838110151515612e8957fe5b8091505092915050565b6000828211151515612ea157fe5b818303905092915050565b828054600181600116156101000203166002900490600052602060002090601f016020900481019282601f10612eed57803560ff1916838001178555612f1b565b82800160010185558215612f1b579182015b82811115612f1a578235825591602001919060010190612eff565b5b509050612f289190612fac565b5090565b828054600181600116156101000203166002900490600052602060002090601f016020900481019282601f10612f6d57805160ff1916838001178555612f9b565b82800160010185558215612f9b579182015b82811115612f9a578251825591602001919060010190612f7f565b5b509050612fa89190612fac565b5090565b612fce91905b80821115612fca576000816000905550600101612fb2565b5090565b905600a165627a7a723058203c3ae6a00e53460b31c00d3daaaf1d412798cb3bac64d67e138d96be5659ed350029",
  "source": "pragma solidity ^0.4.25;\r\n\r\nimport \"./zombieownership.sol\"; // Adjust import if needed\r\n\r\ncontract ZombieBreeding is ZombieOwnership {\r\n    \r\n    event NewZombie(uint zombieId, string name, uint dna);\r\n    \r\n    function breedZombies(uint _zombieId1, uint _zombieId2) \r\n        external \r\n        onlyOwnerOf(_zombieId1) \r\n        onlyOwnerOf(_zombieId2) \r\n    {\r\n        Zombie storage parent1 = zombies[_zombieId1];\r\n        Zombie storage parent2 = zombies[_zombieId2];\r\n\r\n        // Generate DNA for the new zombie by mixing parents' DNA\r\n        uint newDna = _mixDna(parent1.dna, parent2.dna);\r\n        \r\n        // Create a new zombie with a name and the combined DNA\r\n        string memory newName = \"BabyZombie\"; // Modify this to take user input if needed\r\n        _createZombie(newName, newDna);\r\n    }\r\n\r\n    function _mixDna(uint _dna1, uint _dna2) internal pure returns (uint) {\r\n        uint dnaPrefix = _dna1 / 100000000;\r\n        uint dnaSuffix = _dna2 % 100000000;\r\n        return dnaPrefix * 100000000 + dnaSuffix;\r\n    }\r\n}\r\n",
  "sourcePath": "C:\\Users\\sagar\\Downloads\\blockchain-midterm\\contracts\\zombiebreeding.sol",
  "compiler": {
    "name": "solc",
    "version": "0.4.25+commit.59dbf8f1.Emscripten.clang"
  },
  "schemaVersion": "3.4.16",
  "updatedAt": "2024-10-21T04:03:22.340Z",
  "networkType": "ethereum",
  "devdoc": {
    "methods": {
      "isOwner()": {
        "return": "true if `msg.sender` is the owner of the contract.\r"
      },
      "owner()": {
        "return": "the address of the owner.\r"
      },
      "renounceOwnership()": {
        "details": "Allows the current owner to relinquish control of the contract.\r"
      },
      "transferOwnership(address)": {
        "details": "Allows the current owner to transfer control of the contract to a newOwner.\r",
        "params": {
          "newOwner": "The address to transfer ownership to.\r"
        }
      }
    }
  },
  "userdoc": {
    "methods": {
      "renounceOwnership()": {
        "notice": "Renouncing to ownership will leave the contract without an owner.\r It will not be possible to call the functions with the `onlyOwner`\r modifier anymore.\r"
      }
    }
  }
}