{
  "contractName": "ZombieHelper",
  "abi": [
    {
      "constant": false,
      "inputs": [
        {
          "name": "_zombieId",
          "type": "uint256"
        },
        {
          "name": "_kittyId",
          "type": "uint256"
        }
      ],
      "name": "feedOnKitty",
      "outputs": [],
      "payable": false,
      "stateMutability": "nonpayable",
      "type": "function"
    },
    {
      "constant": true,
      "inputs": [
        {
          "name": "",
          "type": "uint256"
        }
      ],
      "name": "zombies",
      "outputs": [
        {
          "name": "name",
          "type": "string"
        },
        {
          "name": "dna",
          "type": "uint256"
        },
        {
          "name": "level",
          "type": "uint32"
        },
        {
          "name": "readyTime",
          "type": "uint32"
        },
        {
          "name": "winCount",
          "type": "uint16"
        },
        {
          "name": "lossCount",
          "type": "uint16"
        },
        {
          "name": "totalBattles",
          "type": "uint32"
        }
      ],
      "payable": false,
      "stateMutability": "view",
      "type": "function"
    },
    {
      "constant": true,
      "inputs": [
        {
          "name": "",
          "type": "uint256"
        }
      ],
      "name": "zombieToOwner",
      "outputs": [
        {
          "name": "",
          "type": "address"
        }
      ],
      "payable": false,
      "stateMutability": "view",
      "type": "function"
    },
    {
      "constant": false,
      "inputs": [
        {
          "name": "_address",
          "type": "address"
        }
      ],
      "name": "setKittyContractAddress",
      "outputs": [],
      "payable": false,
      "stateMutability": "nonpayable",
      "type": "function"
    },
    {
      "constant": true,
      "inputs": [],
      "name": "zombieCount",
      "outputs": [
        {
          "name": "",
          "type": "uint256"
        }
      ],
      "payable": false,
      "stateMutability": "view",
      "type": "function"
    },
    {
      "constant": false,
      "inputs": [],
      "name": "renounceOwnership",
      "outputs": [],
      "payable": false,
      "stateMutability": "nonpayable",
      "type": "function"
    },
    {
      "constant": false,
      "inputs": [
        {
          "name": "_name",
          "type": "string"
        }
      ],
      "name": "createRandomZombie",
      "outputs": [],
      "payable": true,
      "stateMutability": "payable",
      "type": "function"
    },
    {
      "constant": true,
      "inputs": [],
      "name": "zombiePrice",
      "outputs": [
        {
          "name": "",
          "type": "uint256"
        }
      ],
      "payable": false,
      "stateMutability": "view",
      "type": "function"
    },
    {
      "constant": true,
      "inputs": [],
      "name": "owner",
      "outputs": [
        {
          "name": "",
          "type": "address"
        }
      ],
      "payable": false,
      "stateMutability": "view",
      "type": "function"
    },
    {
      "constant": true,
      "inputs": [],
      "name": "isOwner",
      "outputs": [
        {
          "name": "",
          "type": "bool"
        }
      ],
      "payable": false,
      "stateMutability": "view",
      "type": "function"
    },
    {
      "constant": false,
      "inputs": [
        {
          "name": "newOwner",
          "type": "address"
        }
      ],
      "name": "transferOwnership",
      "outputs": [],
      "payable": false,
      "stateMutability": "nonpayable",
      "type": "function"
    },
    {
      "anonymous": false,
      "inputs": [
        {
          "indexed": false,
          "name": "zombieId",
          "type": "uint256"
        },
        {
          "indexed": false,
          "name": "name",
          "type": "string"
        },
        {
          "indexed": false,
          "name": "dna",
          "type": "uint256"
        }
      ],
      "name": "NewZombie",
      "type": "event"
    },
    {
      "anonymous": false,
      "inputs": [
        {
          "indexed": true,
          "name": "previousOwner",
          "type": "address"
        },
        {
          "indexed": true,
          "name": "newOwner",
          "type": "address"
        }
      ],
      "name": "OwnershipTransferred",
      "type": "event"
    },
    {
      "constant": false,
      "inputs": [],
      "name": "withdraw",
      "outputs": [],
      "payable": false,
      "stateMutability": "nonpayable",
      "type": "function"
    },
    {
      "constant": false,
      "inputs": [
        {
          "name": "_fee",
          "type": "uint256"
        }
      ],
      "name": "setLevelUpFee",
      "outputs": [],
      "payable": false,
      "stateMutability": "nonpayable",
      "type": "function"
    },
    {
      "constant": false,
      "inputs": [
        {
          "name": "_zombieId",
          "type": "uint256"
        }
      ],
      "name": "levelUp",
      "outputs": [],
      "payable": true,
      "stateMutability": "payable",
      "type": "function"
    },
    {
      "constant": false,
      "inputs": [
        {
          "name": "_zombieId",
          "type": "uint256"
        },
        {
          "name": "_newName",
          "type": "string"
        }
      ],
      "name": "changeName",
      "outputs": [],
      "payable": false,
      "stateMutability": "nonpayable",
      "type": "function"
    },
    {
      "constant": false,
      "inputs": [
        {
          "name": "_zombieId",
          "type": "uint256"
        },
        {
          "name": "_newDna",
          "type": "uint256"
        }
      ],
      "name": "changeDna",
      "outputs": [],
      "payable": false,
      "stateMutability": "nonpayable",
      "type": "function"
    },
    {
      "constant": true,
      "inputs": [
        {
          "name": "_owner",
          "type": "address"
        }
      ],
      "name": "getZombiesByOwner",
      "outputs": [
        {
          "name": "",
          "type": "uint256[]"
        }
      ],
      "payable": false,
      "stateMutability": "view",
      "type": "function"
    },
    {
      "constant": true,
      "inputs": [
        {
          "name": "_owner",
          "type": "address"
        }
      ],
      "name": "getZombiesNotOwnedBy",
      "outputs": [
        {
          "name": "",
          "type": "uint256[]"
        }
      ],
      "payable": false,
      "stateMutability": "view",
      "type": "function"
    }
  ],
  "bytecode": "0x60806040526010600155600154600a0a60025560006003556000600555662386f26fc1000060085566038d7ea4c68000600a55336000806101000a81548173ffffffffffffffffffffffffffffffffffffffff021916908373ffffffffffffffffffffffffffffffffffffffff1602179055506000809054906101000a900473ffffffffffffffffffffffffffffffffffffffff1673ffffffffffffffffffffffffffffffffffffffff16600073ffffffffffffffffffffffffffffffffffffffff167f8be0079c531659141344cd1fd0a4f28419497f9722a3daafe3b4186f6b6457e060405160405180910390a3611bbe806100fd6000396000f3006080604052600436106100fc576000357c0100000000000000000000000000000000000000000000000000000000900463ffffffff1680630ce90ec21461010157806317a7f4cc146101215780632052465e146101585780633ccfd60b1461025c5780634412e104146102735780634b5a2c4d1461030b578063528b7b8f146103a35780635f4623f1146104105780635faf28801461045357806363721d6b1461048a578063715018a6146104b55780637bff0a01146104cc57806383d404d8146105285780638da5cb5b146105535780638f32d59b146105aa578063c39cbef1146105d9578063ccf670f81461061e578063f2fde38b1461064b575b600080fd5b61011f6004803603810190808035906020019092919050505061068e565b005b34801561012d57600080fd5b506101566004803603810190808035906020019092919080359060200190929190505050610729565b005b34801561016457600080fd5b506101836004803603810190808035906020019092919050505061094a565b60405180806020018881526020018763ffffffff1663ffffffff1681526020018663ffffffff1663ffffffff1681526020018561ffff1661ffff1681526020018461ffff1661ffff1681526020018363ffffffff1663ffffffff168152602001828103825289818151815260200191508051906020019080838360005b8381101561021b578082015181840152602081019050610200565b50505050905090810190601f1680156102485780820380516001836020036101000a031916815260200191505b509850505050505050505060405180910390f35b34801561026857600080fd5b50610271610a7f565b005b34801561027f57600080fd5b506102b4600480360381019080803573ffffffffffffffffffffffffffffffffffffffff169060200190929190505050610aff565b6040518080602001828103825283818151815260200191508051906020019060200280838360005b838110156102f75780820151818401526020810190506102dc565b505050509050019250505060405180910390f35b34801561031757600080fd5b5061034c600480360381019080803573ffffffffffffffffffffffffffffffffffffffff169060200190929190505050610c31565b6040518080602001828103825283818151815260200191508051906020019060200280838360005b8381101561038f578082015181840152602081019050610374565b505050509050019250505060405180910390f35b3480156103af57600080fd5b506103ce60048036038101908080359060200190929190505050610d2a565b604051808273ffffffffffffffffffffffffffffffffffffffff1673ffffffffffffffffffffffffffffffffffffffff16815260200191505060405180910390f35b34801561041c57600080fd5b50610451600480360381019080803573ffffffffffffffffffffffffffffffffffffffff169060200190929190505050610d5d565b005b34801561045f57600080fd5b506104886004803603810190808035906020019092919080359060200190929190505050610db4565b005b34801561049657600080fd5b5061049f610e96565b6040518082815260200191505060405180910390f35b3480156104c157600080fd5b506104ca610e9c565b005b610526600480360381019080803590602001908201803590602001908080601f0160208091040260200160405190810160405280939291908181526020018383808284378201915050505050509192919290505050610f6e565b005b34801561053457600080fd5b5061053d611013565b6040518082815260200191505060405180910390f35b34801561055f57600080fd5b50610568611019565b604051808273ffffffffffffffffffffffffffffffffffffffff1673ffffffffffffffffffffffffffffffffffffffff16815260200191505060405180910390f35b3480156105b657600080fd5b506105bf611042565b604051808215151515815260200191505060405180910390f35b3480156105e557600080fd5b5061061c60048036038101908080359060200190929190803590602001908201803590602001919091929391929390505050611099565b005b34801561062a57600080fd5b5061064960048036038101908080359060200190929190505050611187565b005b34801561065757600080fd5b5061068c600480360381019080803573ffffffffffffffffffffffffffffffffffffffff1690602001909291905050506111a4565b005b600a543414151561069e57600080fd5b6106e860016004838154811015156106b257fe5b906000526020600020906003020160020160009054906101000a900463ffffffff1663ffffffff166111c390919063ffffffff16565b6004828154811015156106f757fe5b906000526020600020906003020160020160006101000a81548163ffffffff021916908363ffffffff16021790555050565b6000600960009054906101000a900473ffffffffffffffffffffffffffffffffffffffff1673ffffffffffffffffffffffffffffffffffffffff1663e98b7f4d836040518263ffffffff167c01000000000000000000000000000000000000000000000000000000000281526004018082815260200191505061014060405180830381600087803b1580156107bd57600080fd5b505af11580156107d1573d6000803e3d6000fd5b505050506040513d6101408110156107e857600080fd5b810190808051906020019092919080519060200190929190805190602001909291908051906020019092919080519060200190929190805190602001909291908051906020019092919080519060200190929190805190602001909291908051906020019092919050505090919293949596979850909192939495969750909192939495965090919293949550909192939450909192935090919250909150905080915050600081111515610905576040517f08c379a00000000000000000000000000000000000000000000000000000000081526004018080602001828103825260148152602001807f4b6974747920646f6573206e6f7420657869737400000000000000000000000081525060200191505060405180910390fd5b61094583826040805190810160405280600581526020017f6b697474790000000000000000000000000000000000000000000000000000008152506111ed565b505050565b60048181548110151561095957fe5b9060005260206000209060030201600091509050806000018054600181600116156101000203166002900480601f016020809104026020016040519081016040528092919081815260200182805460018160011615610100020316600290048015610a055780601f106109da57610100808354040283529160200191610a05565b820191906000526020600020905b8154815290600101906020018083116109e857829003601f168201915b5050505050908060010154908060020160009054906101000a900463ffffffff16908060020160049054906101000a900463ffffffff16908060020160089054906101000a900461ffff169080600201600a9054906101000a900461ffff169080600201600c9054906101000a900463ffffffff16905087565b6000610a89611042565b1515610a9457600080fd5b610a9c611019565b90508073ffffffffffffffffffffffffffffffffffffffff166108fc3073ffffffffffffffffffffffffffffffffffffffff16319081150290604051600060405180830381858888f19350505050158015610afb573d6000803e3d6000fd5b5050565b606080600080600760008673ffffffffffffffffffffffffffffffffffffffff1673ffffffffffffffffffffffffffffffffffffffff16815260200190815260200160002054604051908082528060200260200182016040528015610b735781602001602082028038833980820191505090505b50925060009150600090505b600480549050811015610c26578473ffffffffffffffffffffffffffffffffffffffff166006600083815260200190815260200160002060009054906101000a900473ffffffffffffffffffffffffffffffffffffffff1673ffffffffffffffffffffffffffffffffffffffff161415610c1957808383815181101515610c0257fe5b906020019060200201818152505081806001019250505b8080600101915050610b7f565b829350505050919050565b606080600080600480549050604051908082528060200260200182016040528015610c6b5781602001602082028038833980820191505090505b50925060009150600090505b600480549050811015610d1f578473ffffffffffffffffffffffffffffffffffffffff166006600083815260200190815260200160002060009054906101000a900473ffffffffffffffffffffffffffffffffffffffff1673ffffffffffffffffffffffffffffffffffffffff16141515610d1257808383815181101515610cfb57fe5b906020019060200201818152505081806001019250505b8080600101915050610c77565b829350505050919050565b60066020528060005260406000206000915054906101000a900473ffffffffffffffffffffffffffffffffffffffff1681565b610d65611042565b1515610d7057600080fd5b80600960006101000a81548173ffffffffffffffffffffffffffffffffffffffff021916908373ffffffffffffffffffffffffffffffffffffffff16021790555050565b60148281600482815481101515610dc757fe5b906000526020600020906003020160020160009054906101000a900463ffffffff1663ffffffff1610151515610dfc57600080fd5b836006600082815260200190815260200160002060009054906101000a900473ffffffffffffffffffffffffffffffffffffffff1673ffffffffffffffffffffffffffffffffffffffff163373ffffffffffffffffffffffffffffffffffffffff16141515610e6a57600080fd5b83600486815481101515610e7a57fe5b9060005260206000209060030201600101819055505050505050565b60055481565b610ea4611042565b1515610eaf57600080fd5b600073ffffffffffffffffffffffffffffffffffffffff166000809054906101000a900473ffffffffffffffffffffffffffffffffffffffff1673ffffffffffffffffffffffffffffffffffffffff167f8be0079c531659141344cd1fd0a4f28419497f9722a3daafe3b4186f6b6457e060405160405180910390a360008060006101000a81548173ffffffffffffffffffffffffffffffffffffffff021916908373ffffffffffffffffffffffffffffffffffffffff160217905550565b600060085434141515610fe9576040517f08c379a000000000000000000000000000000000000000000000000000000000815260040180806020018281038252601a8152602001807f496e636f72726563742045746865722076616c75652073656e7400000000000081525060200191505060405180910390fd5b610ff282611503565b905060648181151561100057fe5b068103905061100f82826115f1565b5050565b60085481565b60008060009054906101000a900473ffffffffffffffffffffffffffffffffffffffff16905090565b60008060009054906101000a900473ffffffffffffffffffffffffffffffffffffffff1673ffffffffffffffffffffffffffffffffffffffff163373ffffffffffffffffffffffffffffffffffffffff1614905090565b600283816004828154811015156110ac57fe5b906000526020600020906003020160020160009054906101000a900463ffffffff1663ffffffff16101515156110e157600080fd5b846006600082815260200190815260200160002060009054906101000a900473ffffffffffffffffffffffffffffffffffffffff1673ffffffffffffffffffffffffffffffffffffffff163373ffffffffffffffffffffffffffffffffffffffff1614151561114f57600080fd5b848460048881548110151561116057fe5b9060005260206000209060030201600001919061117e929190611a6d565b50505050505050565b61118f611042565b151561119a57600080fd5b80600a8190555050565b6111ac611042565b15156111b757600080fd5b6111c081611904565b50565b60008082840190508363ffffffff168163ffffffff16101515156111e357fe5b8091505092915050565b600080846006600082815260200190815260200160002060009054906101000a900473ffffffffffffffffffffffffffffffffffffffff1673ffffffffffffffffffffffffffffffffffffffff163373ffffffffffffffffffffffffffffffffffffffff1614151561125e57600080fd5b60048681548110151561126d57fe5b90600052602060002090600302019250611286836119fe565b15156112fa576040517f08c379a00000000000000000000000000000000000000000000000000000000081526004018080602001828103825260188152602001807f5a6f6d626965206973206e6f74207265616479207965742e000000000000000081525060200191505060405180910390fd5b6002548581151561130757fe5b06945060028584600101540181151561131c57fe5b04915060405160200180807f6b6974747900000000000000000000000000000000000000000000000000000081525060050190506040516020818303038152906040526040518082805190602001908083835b602083101515611394578051825260208201915060208101905060208303925061136f565b6001836020036101000a038019825116818451168082178552505050505050905001915050604051809103902060001916846040516020018082805190602001908083835b6020831015156113fe57805182526020820191506020810190506020830392506113d9565b6001836020036101000a0380198251168184511680821785525050505050509050019150506040516020818303038152906040526040518082805190602001908083835b6020831015156114675780518252602082019150602081019050602083039250611442565b6001836020036101000a03801982511681845116808217855250505050505090500191505060405180910390206000191614156114b35760636064838115156114ac57fe5b0683030191505b6114f26040805190810160405280600681526020017f4e6f4e616d650000000000000000000000000000000000000000000000000000815250836115f1565b6114fb83611a25565b505050505050565b600080826040516020018082805190602001908083835b60208310151561153f578051825260208201915060208101905060208303925061151a565b6001836020036101000a0380198251168184511680821785525050505050509050019150506040516020818303038152906040526040518082805190602001908083835b6020831015156115a85780518252602082019150602081019050602083039250611583565b6001836020036101000a0380198251168184511680821785525050505050509050019150506040518091039020600190049050600254818115156115e857fe5b06915050919050565b60006001600460e060405190810160405280868152602001858152602001600163ffffffff168152602001600354420163ffffffff168152602001600061ffff168152602001600061ffff168152602001600063ffffffff16815250908060018154018082558091505090600182039060005260206000209060030201600090919290919091506000820151816000019080519060200190611694929190611aed565b506020820151816001015560408201518160020160006101000a81548163ffffffff021916908363ffffffff16021790555060608201518160020160046101000a81548163ffffffff021916908363ffffffff16021790555060808201518160020160086101000a81548161ffff021916908361ffff16021790555060a082015181600201600a6101000a81548161ffff021916908361ffff16021790555060c082015181600201600c6101000a81548163ffffffff021916908363ffffffff1602179055505050039050336006600083815260200190815260200160002060006101000a81548173ffffffffffffffffffffffffffffffffffffffff021916908373ffffffffffffffffffffffffffffffffffffffff1602179055506118046001600760003373ffffffffffffffffffffffffffffffffffffffff1673ffffffffffffffffffffffffffffffffffffffff16815260200190815260200160002054611a4f90919063ffffffff16565b600760003373ffffffffffffffffffffffffffffffffffffffff1673ffffffffffffffffffffffffffffffffffffffff168152602001908152602001600020819055506004805490506005819055507f88f026aacbbecc90c18411df4b1185fd8d9be2470f1962f192bf84a27d0704b78184846040518084815260200180602001838152602001828103825284818151815260200191508051906020019080838360005b838110156118c35780820151818401526020810190506118a8565b50505050905090810190601f1680156118f05780820380516001836020036101000a031916815260200191505b5094505050505060405180910390a1505050565b600073ffffffffffffffffffffffffffffffffffffffff168173ffffffffffffffffffffffffffffffffffffffff161415151561194057600080fd5b8073ffffffffffffffffffffffffffffffffffffffff166000809054906101000a900473ffffffffffffffffffffffffffffffffffffffff1673ffffffffffffffffffffffffffffffffffffffff167f8be0079c531659141344cd1fd0a4f28419497f9722a3daafe3b4186f6b6457e060405160405180910390a3806000806101000a81548173ffffffffffffffffffffffffffffffffffffffff021916908373ffffffffffffffffffffffffffffffffffffffff16021790555050565b6000428260020160049054906101000a900463ffffffff1663ffffffff1611159050919050565b60035442018160020160046101000a81548163ffffffff021916908363ffffffff16021790555050565b6000808284019050838110151515611a6357fe5b8091505092915050565b828054600181600116156101000203166002900490600052602060002090601f016020900481019282601f10611aae57803560ff1916838001178555611adc565b82800160010185558215611adc579182015b82811115611adb578235825591602001919060010190611ac0565b5b509050611ae99190611b6d565b5090565b828054600181600116156101000203166002900490600052602060002090601f016020900481019282601f10611b2e57805160ff1916838001178555611b5c565b82800160010185558215611b5c579182015b82811115611b5b578251825591602001919060010190611b40565b5b509050611b699190611b6d565b5090565b611b8f91905b80821115611b8b576000816000905550600101611b73565b5090565b905600a165627a7a72305820a91221139cc0f7402b1a17ab62bfc2dd5f6e84c434dc3cc06820aaf67f4169020029",
  "source": "pragma solidity ^0.4.25;\r\n\r\nimport \"./zombiefeeding.sol\";\r\n\r\ncontract ZombieHelper is ZombieFeeding {\r\n\r\n  uint levelUpFee = 0.001 ether;\r\n\r\n  modifier aboveLevel(uint _level, uint _zombieId) {\r\n    require(zombies[_zombieId].level >= _level);\r\n    _;\r\n  }\r\n\r\n  function withdraw() external onlyOwner {\r\n    address _owner = owner();\r\n    _owner.transfer(address(this).balance);\r\n  }\r\n\r\n  function setLevelUpFee(uint _fee) external onlyOwner {\r\n    levelUpFee = _fee;\r\n  }\r\n\r\n  function levelUp(uint _zombieId) external payable {\r\n    require(msg.value == levelUpFee);\r\n    zombies[_zombieId].level = zombies[_zombieId].level.add(1);\r\n  }\r\n\r\n  function changeName(uint _zombieId, string _newName) external aboveLevel(2, _zombieId) onlyOwnerOf(_zombieId) {\r\n    zombies[_zombieId].name = _newName;\r\n  }\r\n\r\n  function changeDna(uint _zombieId, uint _newDna) external aboveLevel(20, _zombieId) onlyOwnerOf(_zombieId) {\r\n    zombies[_zombieId].dna = _newDna;\r\n  }\r\n\r\n  function getZombiesByOwner(address _owner) external view returns(uint[]) {\r\n    uint[] memory result = new uint[](ownerZombieCount[_owner]);\r\n    uint counter = 0;\r\n    for (uint i = 0; i < zombies.length; i++) {\r\n      if (zombieToOwner[i] == _owner) {\r\n        result[counter] = i;\r\n        counter++;\r\n      }\r\n    }\r\n    return result;\r\n  }\r\n\r\n  function getZombiesNotOwnedBy(address _owner) external view returns (uint[] memory) {\r\n    uint[] memory result = new uint[](zombies.length);\r\n    uint counter = 0;\r\n    for (uint i = 0; i < zombies.length; i++) {\r\n        if (zombieToOwner[i] != _owner) {\r\n            result[counter] = i;\r\n            counter++;\r\n        }\r\n    }\r\n    return result;\r\n}\r\n\r\n\r\n}\r\n",
  "sourcePath": "C:\\Users\\sagar\\Downloads\\blockchain-midterm\\contracts\\zombiehelper.sol",
  "compiler": {
    "name": "solc",
    "version": "0.4.25+commit.59dbf8f1.Emscripten.clang"
  },
  "schemaVersion": "3.4.16",
  "updatedAt": "2024-10-18T07:36:24.386Z",
  "networkType": "ethereum",
  "devdoc": {
    "methods": {
      "isOwner()": {
        "return": "true if `msg.sender` is the owner of the contract.\r"
      },
      "owner()": {
        "return": "the address of the owner.\r"
      },
      "renounceOwnership()": {
        "details": "Allows the current owner to relinquish control of the contract.\r"
      },
      "transferOwnership(address)": {
        "details": "Allows the current owner to transfer control of the contract to a newOwner.\r",
        "params": {
          "newOwner": "The address to transfer ownership to.\r"
        }
      }
    }
  },
  "userdoc": {
    "methods": {
      "renounceOwnership()": {
        "notice": "Renouncing to ownership will leave the contract without an owner.\r It will not be possible to call the functions with the `onlyOwner`\r modifier anymore.\r"
      }
    }
  }
}