{
  "contractName": "ZombieHelper",
  "abi": [
    {
      "constant": false,
      "inputs": [
        {
          "name": "_zombieId",
          "type": "uint256"
        },
        {
          "name": "_kittyId",
          "type": "uint256"
        }
      ],
      "name": "feedOnKitty",
      "outputs": [],
      "payable": false,
      "stateMutability": "nonpayable",
      "type": "function"
    },
    {
      "constant": true,
      "inputs": [
        {
          "name": "",
          "type": "uint256"
        }
      ],
      "name": "zombies",
      "outputs": [
        {
          "name": "name",
          "type": "string"
        },
        {
          "name": "dna",
          "type": "uint256"
        },
        {
          "name": "level",
          "type": "uint32"
        },
        {
          "name": "readyTime",
          "type": "uint32"
        },
        {
          "name": "winCount",
          "type": "uint16"
        },
        {
          "name": "lossCount",
          "type": "uint16"
        }
      ],
      "payable": false,
      "stateMutability": "view",
      "type": "function"
    },
    {
      "constant": true,
      "inputs": [
        {
          "name": "",
          "type": "uint256"
        }
      ],
      "name": "zombieToOwner",
      "outputs": [
        {
          "name": "",
          "type": "address"
        }
      ],
      "payable": false,
      "stateMutability": "view",
      "type": "function"
    },
    {
      "constant": false,
      "inputs": [
        {
          "name": "_address",
          "type": "address"
        }
      ],
      "name": "setKittyContractAddress",
      "outputs": [],
      "payable": false,
      "stateMutability": "nonpayable",
      "type": "function"
    },
    {
      "constant": true,
      "inputs": [],
      "name": "zombieCount",
      "outputs": [
        {
          "name": "",
          "type": "uint256"
        }
      ],
      "payable": false,
      "stateMutability": "view",
      "type": "function"
    },
    {
      "constant": false,
      "inputs": [],
      "name": "renounceOwnership",
      "outputs": [],
      "payable": false,
      "stateMutability": "nonpayable",
      "type": "function"
    },
    {
      "constant": false,
      "inputs": [
        {
          "name": "_name",
          "type": "string"
        }
      ],
      "name": "createRandomZombie",
      "outputs": [],
      "payable": true,
      "stateMutability": "payable",
      "type": "function"
    },
    {
      "constant": true,
      "inputs": [],
      "name": "zombiePrice",
      "outputs": [
        {
          "name": "",
          "type": "uint256"
        }
      ],
      "payable": false,
      "stateMutability": "view",
      "type": "function"
    },
    {
      "constant": true,
      "inputs": [],
      "name": "owner",
      "outputs": [
        {
          "name": "",
          "type": "address"
        }
      ],
      "payable": false,
      "stateMutability": "view",
      "type": "function"
    },
    {
      "constant": true,
      "inputs": [],
      "name": "isOwner",
      "outputs": [
        {
          "name": "",
          "type": "bool"
        }
      ],
      "payable": false,
      "stateMutability": "view",
      "type": "function"
    },
    {
      "constant": false,
      "inputs": [
        {
          "name": "newOwner",
          "type": "address"
        }
      ],
      "name": "transferOwnership",
      "outputs": [],
      "payable": false,
      "stateMutability": "nonpayable",
      "type": "function"
    },
    {
      "anonymous": false,
      "inputs": [
        {
          "indexed": false,
          "name": "zombieId",
          "type": "uint256"
        },
        {
          "indexed": false,
          "name": "name",
          "type": "string"
        },
        {
          "indexed": false,
          "name": "dna",
          "type": "uint256"
        }
      ],
      "name": "NewZombie",
      "type": "event"
    },
    {
      "anonymous": false,
      "inputs": [
        {
          "indexed": true,
          "name": "previousOwner",
          "type": "address"
        },
        {
          "indexed": true,
          "name": "newOwner",
          "type": "address"
        }
      ],
      "name": "OwnershipTransferred",
      "type": "event"
    },
    {
      "constant": false,
      "inputs": [],
      "name": "withdraw",
      "outputs": [],
      "payable": false,
      "stateMutability": "nonpayable",
      "type": "function"
    },
    {
      "constant": false,
      "inputs": [
        {
          "name": "_fee",
          "type": "uint256"
        }
      ],
      "name": "setLevelUpFee",
      "outputs": [],
      "payable": false,
      "stateMutability": "nonpayable",
      "type": "function"
    },
    {
      "constant": false,
      "inputs": [
        {
          "name": "_zombieId",
          "type": "uint256"
        }
      ],
      "name": "levelUp",
      "outputs": [],
      "payable": true,
      "stateMutability": "payable",
      "type": "function"
    },
    {
      "constant": false,
      "inputs": [
        {
          "name": "_zombieId",
          "type": "uint256"
        },
        {
          "name": "_newName",
          "type": "string"
        }
      ],
      "name": "changeName",
      "outputs": [],
      "payable": false,
      "stateMutability": "nonpayable",
      "type": "function"
    },
    {
      "constant": false,
      "inputs": [
        {
          "name": "_zombieId",
          "type": "uint256"
        },
        {
          "name": "_newDna",
          "type": "uint256"
        }
      ],
      "name": "changeDna",
      "outputs": [],
      "payable": false,
      "stateMutability": "nonpayable",
      "type": "function"
    },
    {
      "constant": true,
      "inputs": [
        {
          "name": "_owner",
          "type": "address"
        }
      ],
      "name": "getZombiesByOwner",
      "outputs": [
        {
          "name": "",
          "type": "uint256[]"
        }
      ],
      "payable": false,
      "stateMutability": "view",
      "type": "function"
    },
    {
      "constant": true,
      "inputs": [
        {
          "name": "_owner",
          "type": "address"
        }
      ],
      "name": "getZombiesNotOwnedBy",
      "outputs": [
        {
          "name": "",
          "type": "uint256[]"
        }
      ],
      "payable": false,
      "stateMutability": "view",
      "type": "function"
    }
  ],
  "bytecode": "0x60806040526010600155600154600a0a60025560006003556000600555662386f26fc1000060085566038d7ea4c68000600a55336000806101000a81548173ffffffffffffffffffffffffffffffffffffffff021916908373ffffffffffffffffffffffffffffffffffffffff1602179055506000809054906101000a900473ffffffffffffffffffffffffffffffffffffffff1673ffffffffffffffffffffffffffffffffffffffff16600073ffffffffffffffffffffffffffffffffffffffff167f8be0079c531659141344cd1fd0a4f28419497f9722a3daafe3b4186f6b6457e060405160405180910390a3611b61806100fd6000396000f3006080604052600436106100fc576000357c0100000000000000000000000000000000000000000000000000000000900463ffffffff1680630ce90ec21461010157806317a7f4cc146101215780632052465e146101585780633ccfd60b146102495780634412e104146102605780634b5a2c4d146102f8578063528b7b8f146103905780635f4623f1146103fd5780635faf28801461044057806363721d6b14610477578063715018a6146104a25780637bff0a01146104b957806383d404d8146105155780638da5cb5b146105405780638f32d59b14610597578063c39cbef1146105c6578063ccf670f81461060b578063f2fde38b14610638575b600080fd5b61011f6004803603810190808035906020019092919050505061067b565b005b34801561012d57600080fd5b506101566004803603810190808035906020019092919080359060200190929190505050610716565b005b34801561016457600080fd5b5061018360048036038101908080359060200190929190505050610937565b60405180806020018781526020018663ffffffff1663ffffffff1681526020018563ffffffff1663ffffffff1681526020018461ffff1661ffff1681526020018361ffff1661ffff168152602001828103825288818151815260200191508051906020019080838360005b838110156102095780820151818401526020810190506101ee565b50505050905090810190601f1680156102365780820380516001836020036101000a031916815260200191505b5097505050505050505060405180910390f35b34801561025557600080fd5b5061025e610a56565b005b34801561026c57600080fd5b506102a1600480360381019080803573ffffffffffffffffffffffffffffffffffffffff169060200190929190505050610ad6565b6040518080602001828103825283818151815260200191508051906020019060200280838360005b838110156102e45780820151818401526020810190506102c9565b505050509050019250505060405180910390f35b34801561030457600080fd5b50610339600480360381019080803573ffffffffffffffffffffffffffffffffffffffff169060200190929190505050610c08565b6040518080602001828103825283818151815260200191508051906020019060200280838360005b8381101561037c578082015181840152602081019050610361565b505050509050019250505060405180910390f35b34801561039c57600080fd5b506103bb60048036038101908080359060200190929190505050610d01565b604051808273ffffffffffffffffffffffffffffffffffffffff1673ffffffffffffffffffffffffffffffffffffffff16815260200191505060405180910390f35b34801561040957600080fd5b5061043e600480360381019080803573ffffffffffffffffffffffffffffffffffffffff169060200190929190505050610d34565b005b34801561044c57600080fd5b506104756004803603810190808035906020019092919080359060200190929190505050610d8b565b005b34801561048357600080fd5b5061048c610e6d565b6040518082815260200191505060405180910390f35b3480156104ae57600080fd5b506104b7610e73565b005b610513600480360381019080803590602001908201803590602001908080601f0160208091040260200160405190810160405280939291908181526020018383808284378201915050505050509192919290505050610f45565b005b34801561052157600080fd5b5061052a610fea565b6040518082815260200191505060405180910390f35b34801561054c57600080fd5b50610555610ff0565b604051808273ffffffffffffffffffffffffffffffffffffffff1673ffffffffffffffffffffffffffffffffffffffff16815260200191505060405180910390f35b3480156105a357600080fd5b506105ac611019565b604051808215151515815260200191505060405180910390f35b3480156105d257600080fd5b5061060960048036038101908080359060200190929190803590602001908201803590602001919091929391929390505050611070565b005b34801561061757600080fd5b506106366004803603810190808035906020019092919050505061115e565b005b34801561064457600080fd5b50610679600480360381019080803573ffffffffffffffffffffffffffffffffffffffff16906020019092919050505061117b565b005b600a543414151561068b57600080fd5b6106d5600160048381548110151561069f57fe5b906000526020600020906003020160020160009054906101000a900463ffffffff1663ffffffff1661119a90919063ffffffff16565b6004828154811015156106e457fe5b906000526020600020906003020160020160006101000a81548163ffffffff021916908363ffffffff16021790555050565b6000600960009054906101000a900473ffffffffffffffffffffffffffffffffffffffff1673ffffffffffffffffffffffffffffffffffffffff1663e98b7f4d836040518263ffffffff167c01000000000000000000000000000000000000000000000000000000000281526004018082815260200191505061014060405180830381600087803b1580156107aa57600080fd5b505af11580156107be573d6000803e3d6000fd5b505050506040513d6101408110156107d557600080fd5b8101908080519060200190929190805190602001909291908051906020019092919080519060200190929190805190602001909291908051906020019092919080519060200190929190805190602001909291908051906020019092919080519060200190929190505050909192939495969798509091929394959697509091929394959650909192939495509091929394509091929350909192509091509050809150506000811115156108f2576040517f08c379a00000000000000000000000000000000000000000000000000000000081526004018080602001828103825260148152602001807f4b6974747920646f6573206e6f7420657869737400000000000000000000000081525060200191505060405180910390fd5b61093283826040805190810160405280600581526020017f6b697474790000000000000000000000000000000000000000000000000000008152506111c4565b505050565b60048181548110151561094657fe5b9060005260206000209060030201600091509050806000018054600181600116156101000203166002900480601f0160208091040260200160405190810160405280929190818152602001828054600181600116156101000203166002900480156109f25780601f106109c7576101008083540402835291602001916109f2565b820191906000526020600020905b8154815290600101906020018083116109d557829003601f168201915b5050505050908060010154908060020160009054906101000a900463ffffffff16908060020160049054906101000a900463ffffffff16908060020160089054906101000a900461ffff169080600201600a9054906101000a900461ffff16905086565b6000610a60611019565b1515610a6b57600080fd5b610a73610ff0565b90508073ffffffffffffffffffffffffffffffffffffffff166108fc3073ffffffffffffffffffffffffffffffffffffffff16319081150290604051600060405180830381858888f19350505050158015610ad2573d6000803e3d6000fd5b5050565b606080600080600760008673ffffffffffffffffffffffffffffffffffffffff1673ffffffffffffffffffffffffffffffffffffffff16815260200190815260200160002054604051908082528060200260200182016040528015610b4a5781602001602082028038833980820191505090505b50925060009150600090505b600480549050811015610bfd578473ffffffffffffffffffffffffffffffffffffffff166006600083815260200190815260200160002060009054906101000a900473ffffffffffffffffffffffffffffffffffffffff1673ffffffffffffffffffffffffffffffffffffffff161415610bf057808383815181101515610bd957fe5b906020019060200201818152505081806001019250505b8080600101915050610b56565b829350505050919050565b606080600080600480549050604051908082528060200260200182016040528015610c425781602001602082028038833980820191505090505b50925060009150600090505b600480549050811015610cf6578473ffffffffffffffffffffffffffffffffffffffff166006600083815260200190815260200160002060009054906101000a900473ffffffffffffffffffffffffffffffffffffffff1673ffffffffffffffffffffffffffffffffffffffff16141515610ce957808383815181101515610cd257fe5b906020019060200201818152505081806001019250505b8080600101915050610c4e565b829350505050919050565b60066020528060005260406000206000915054906101000a900473ffffffffffffffffffffffffffffffffffffffff1681565b610d3c611019565b1515610d4757600080fd5b80600960006101000a81548173ffffffffffffffffffffffffffffffffffffffff021916908373ffffffffffffffffffffffffffffffffffffffff16021790555050565b60148281600482815481101515610d9e57fe5b906000526020600020906003020160020160009054906101000a900463ffffffff1663ffffffff1610151515610dd357600080fd5b836006600082815260200190815260200160002060009054906101000a900473ffffffffffffffffffffffffffffffffffffffff1673ffffffffffffffffffffffffffffffffffffffff163373ffffffffffffffffffffffffffffffffffffffff16141515610e4157600080fd5b83600486815481101515610e5157fe5b9060005260206000209060030201600101819055505050505050565b60055481565b610e7b611019565b1515610e8657600080fd5b600073ffffffffffffffffffffffffffffffffffffffff166000809054906101000a900473ffffffffffffffffffffffffffffffffffffffff1673ffffffffffffffffffffffffffffffffffffffff167f8be0079c531659141344cd1fd0a4f28419497f9722a3daafe3b4186f6b6457e060405160405180910390a360008060006101000a81548173ffffffffffffffffffffffffffffffffffffffff021916908373ffffffffffffffffffffffffffffffffffffffff160217905550565b600060085434141515610fc0576040517f08c379a000000000000000000000000000000000000000000000000000000000815260040180806020018281038252601a8152602001807f496e636f72726563742045746865722076616c75652073656e7400000000000081525060200191505060405180910390fd5b610fc9826114da565b9050606481811515610fd757fe5b0681039050610fe682826115c8565b5050565b60085481565b60008060009054906101000a900473ffffffffffffffffffffffffffffffffffffffff16905090565b60008060009054906101000a900473ffffffffffffffffffffffffffffffffffffffff1673ffffffffffffffffffffffffffffffffffffffff163373ffffffffffffffffffffffffffffffffffffffff1614905090565b6002838160048281548110151561108357fe5b906000526020600020906003020160020160009054906101000a900463ffffffff1663ffffffff16101515156110b857600080fd5b846006600082815260200190815260200160002060009054906101000a900473ffffffffffffffffffffffffffffffffffffffff1673ffffffffffffffffffffffffffffffffffffffff163373ffffffffffffffffffffffffffffffffffffffff1614151561112657600080fd5b848460048881548110151561113757fe5b90600052602060002090600302016000019190611155929190611a10565b50505050505050565b611166611019565b151561117157600080fd5b80600a8190555050565b611183611019565b151561118e57600080fd5b611197816118a7565b50565b60008082840190508363ffffffff168163ffffffff16101515156111ba57fe5b8091505092915050565b600080846006600082815260200190815260200160002060009054906101000a900473ffffffffffffffffffffffffffffffffffffffff1673ffffffffffffffffffffffffffffffffffffffff163373ffffffffffffffffffffffffffffffffffffffff1614151561123557600080fd5b60048681548110151561124457fe5b9060005260206000209060030201925061125d836119a1565b15156112d1576040517f08c379a00000000000000000000000000000000000000000000000000000000081526004018080602001828103825260188152602001807f5a6f6d626965206973206e6f74207265616479207965742e000000000000000081525060200191505060405180910390fd5b600254858115156112de57fe5b0694506002858460010154018115156112f357fe5b04915060405160200180807f6b6974747900000000000000000000000000000000000000000000000000000081525060050190506040516020818303038152906040526040518082805190602001908083835b60208310151561136b5780518252602082019150602081019050602083039250611346565b6001836020036101000a038019825116818451168082178552505050505050905001915050604051809103902060001916846040516020018082805190602001908083835b6020831015156113d557805182526020820191506020810190506020830392506113b0565b6001836020036101000a0380198251168184511680821785525050505050509050019150506040516020818303038152906040526040518082805190602001908083835b60208310151561143e5780518252602082019150602081019050602083039250611419565b6001836020036101000a038019825116818451168082178552505050505050905001915050604051809103902060001916141561148a57606360648381151561148357fe5b0683030191505b6114c96040805190810160405280600681526020017f4e6f4e616d650000000000000000000000000000000000000000000000000000815250836115c8565b6114d2836119c8565b505050505050565b600080826040516020018082805190602001908083835b60208310151561151657805182526020820191506020810190506020830392506114f1565b6001836020036101000a0380198251168184511680821785525050505050509050019150506040516020818303038152906040526040518082805190602001908083835b60208310151561157f578051825260208201915060208101905060208303925061155a565b6001836020036101000a0380198251168184511680821785525050505050509050019150506040518091039020600190049050600254818115156115bf57fe5b06915050919050565b60006001600460c060405190810160405280868152602001858152602001600163ffffffff168152602001600354420163ffffffff168152602001600061ffff168152602001600061ffff1681525090806001815401808255809150509060018203906000526020600020906003020160009091929091909150600082015181600001908051906020019061165e929190611a90565b506020820151816001015560408201518160020160006101000a81548163ffffffff021916908363ffffffff16021790555060608201518160020160046101000a81548163ffffffff021916908363ffffffff16021790555060808201518160020160086101000a81548161ffff021916908361ffff16021790555060a082015181600201600a6101000a81548161ffff021916908361ffff1602179055505050039050336006600083815260200190815260200160002060006101000a81548173ffffffffffffffffffffffffffffffffffffffff021916908373ffffffffffffffffffffffffffffffffffffffff1602179055506117a76001600760003373ffffffffffffffffffffffffffffffffffffffff1673ffffffffffffffffffffffffffffffffffffffff168152602001908152602001600020546119f290919063ffffffff16565b600760003373ffffffffffffffffffffffffffffffffffffffff1673ffffffffffffffffffffffffffffffffffffffff168152602001908152602001600020819055506004805490506005819055507f88f026aacbbecc90c18411df4b1185fd8d9be2470f1962f192bf84a27d0704b78184846040518084815260200180602001838152602001828103825284818151815260200191508051906020019080838360005b8381101561186657808201518184015260208101905061184b565b50505050905090810190601f1680156118935780820380516001836020036101000a031916815260200191505b5094505050505060405180910390a1505050565b600073ffffffffffffffffffffffffffffffffffffffff168173ffffffffffffffffffffffffffffffffffffffff16141515156118e357600080fd5b8073ffffffffffffffffffffffffffffffffffffffff166000809054906101000a900473ffffffffffffffffffffffffffffffffffffffff1673ffffffffffffffffffffffffffffffffffffffff167f8be0079c531659141344cd1fd0a4f28419497f9722a3daafe3b4186f6b6457e060405160405180910390a3806000806101000a81548173ffffffffffffffffffffffffffffffffffffffff021916908373ffffffffffffffffffffffffffffffffffffffff16021790555050565b6000428260020160049054906101000a900463ffffffff1663ffffffff1611159050919050565b60035442018160020160046101000a81548163ffffffff021916908363ffffffff16021790555050565b6000808284019050838110151515611a0657fe5b8091505092915050565b828054600181600116156101000203166002900490600052602060002090601f016020900481019282601f10611a5157803560ff1916838001178555611a7f565b82800160010185558215611a7f579182015b82811115611a7e578235825591602001919060010190611a63565b5b509050611a8c9190611b10565b5090565b828054600181600116156101000203166002900490600052602060002090601f016020900481019282601f10611ad157805160ff1916838001178555611aff565b82800160010185558215611aff579182015b82811115611afe578251825591602001919060010190611ae3565b5b509050611b0c9190611b10565b5090565b611b3291905b80821115611b2e576000816000905550600101611b16565b5090565b905600a165627a7a72305820aba73000a1dbf0e42e627a09de46324b6cf307ea661ff0ab8b45c6447b9b97910029",
  "source": "pragma solidity ^0.4.25;\n\nimport \"./zombiefeeding.sol\";\n\ncontract ZombieHelper is ZombieFeeding {\n\n  uint levelUpFee = 0.001 ether;\n\n  modifier aboveLevel(uint _level, uint _zombieId) {\n    require(zombies[_zombieId].level >= _level);\n    _;\n  }\n\n  function withdraw() external onlyOwner {\n    address _owner = owner();\n    _owner.transfer(address(this).balance);\n  }\n\n  function setLevelUpFee(uint _fee) external onlyOwner {\n    levelUpFee = _fee;\n  }\n\n  function levelUp(uint _zombieId) external payable {\n    require(msg.value == levelUpFee);\n    zombies[_zombieId].level = zombies[_zombieId].level.add(1);\n  }\n\n  function changeName(uint _zombieId, string _newName) external aboveLevel(2, _zombieId) onlyOwnerOf(_zombieId) {\n    zombies[_zombieId].name = _newName;\n  }\n\n  function changeDna(uint _zombieId, uint _newDna) external aboveLevel(20, _zombieId) onlyOwnerOf(_zombieId) {\n    zombies[_zombieId].dna = _newDna;\n  }\n\n  function getZombiesByOwner(address _owner) external view returns(uint[]) {\n    uint[] memory result = new uint[](ownerZombieCount[_owner]);\n    uint counter = 0;\n    for (uint i = 0; i < zombies.length; i++) {\n      if (zombieToOwner[i] == _owner) {\n        result[counter] = i;\n        counter++;\n      }\n    }\n    return result;\n  }\n\n  function getZombiesNotOwnedBy(address _owner) external view returns (uint[] memory) {\n    uint[] memory result = new uint[](zombies.length);\n    uint counter = 0;\n    for (uint i = 0; i < zombies.length; i++) {\n        if (zombieToOwner[i] != _owner) {\n            result[counter] = i;\n            counter++;\n        }\n    }\n    return result;\n}\n\n\n}\n",
  "sourcePath": "C:\\Users\\sagar\\Desktop\\Cryptozombie demo package\\contracts\\zombiehelper.sol",
  "compiler": {
    "name": "solc",
    "version": "0.4.25+commit.59dbf8f1.Emscripten.clang"
  },
  "schemaVersion": "3.4.16",
  "updatedAt": "2024-10-17T03:30:56.264Z",
  "networkType": "ethereum",
  "devdoc": {
    "methods": {
      "isOwner()": {
        "return": "true if `msg.sender` is the owner of the contract."
      },
      "owner()": {
        "return": "the address of the owner."
      },
      "renounceOwnership()": {
        "details": "Allows the current owner to relinquish control of the contract."
      },
      "transferOwnership(address)": {
        "details": "Allows the current owner to transfer control of the contract to a newOwner.",
        "params": {
          "newOwner": "The address to transfer ownership to."
        }
      }
    }
  },
  "userdoc": {
    "methods": {
      "renounceOwnership()": {
        "notice": "Renouncing to ownership will leave the contract without an owner. It will not be possible to call the functions with the `onlyOwner` modifier anymore."
      }
    }
  }
}