{
  "contractName": "ZombieOwnership",
  "abi": [
    {
      "constant": false,
      "inputs": [
        {
          "name": "_zombieId",
          "type": "uint256"
        }
      ],
      "name": "levelUp",
      "outputs": [],
      "payable": true,
      "stateMutability": "payable",
      "type": "function"
    },
    {
      "constant": false,
      "inputs": [
        {
          "name": "_zombieId",
          "type": "uint256"
        },
        {
          "name": "_kittyId",
          "type": "uint256"
        }
      ],
      "name": "feedOnKitty",
      "outputs": [],
      "payable": false,
      "stateMutability": "nonpayable",
      "type": "function"
    },
    {
      "constant": true,
      "inputs": [
        {
          "name": "",
          "type": "uint256"
        }
      ],
      "name": "zombies",
      "outputs": [
        {
          "name": "name",
          "type": "string"
        },
        {
          "name": "dna",
          "type": "uint256"
        },
        {
          "name": "level",
          "type": "uint32"
        },
        {
          "name": "readyTime",
          "type": "uint32"
        },
        {
          "name": "winCount",
          "type": "uint16"
        },
        {
          "name": "lossCount",
          "type": "uint16"
        },
        {
          "name": "totalBattles",
          "type": "uint32"
        }
      ],
      "payable": false,
      "stateMutability": "view",
      "type": "function"
    },
    {
      "constant": false,
      "inputs": [],
      "name": "withdraw",
      "outputs": [],
      "payable": false,
      "stateMutability": "nonpayable",
      "type": "function"
    },
    {
      "constant": true,
      "inputs": [
        {
          "name": "_owner",
          "type": "address"
        }
      ],
      "name": "getZombiesByOwner",
      "outputs": [
        {
          "name": "",
          "type": "uint256[]"
        }
      ],
      "payable": false,
      "stateMutability": "view",
      "type": "function"
    },
    {
      "constant": true,
      "inputs": [
        {
          "name": "_owner",
          "type": "address"
        }
      ],
      "name": "getZombiesNotOwnedBy",
      "outputs": [
        {
          "name": "",
          "type": "uint256[]"
        }
      ],
      "payable": false,
      "stateMutability": "view",
      "type": "function"
    },
    {
      "constant": true,
      "inputs": [
        {
          "name": "",
          "type": "uint256"
        }
      ],
      "name": "zombieToOwner",
      "outputs": [
        {
          "name": "",
          "type": "address"
        }
      ],
      "payable": false,
      "stateMutability": "view",
      "type": "function"
    },
    {
      "constant": false,
      "inputs": [
        {
          "name": "_address",
          "type": "address"
        }
      ],
      "name": "setKittyContractAddress",
      "outputs": [],
      "payable": false,
      "stateMutability": "nonpayable",
      "type": "function"
    },
    {
      "constant": false,
      "inputs": [
        {
          "name": "_zombieId",
          "type": "uint256"
        },
        {
          "name": "_newDna",
          "type": "uint256"
        }
      ],
      "name": "changeDna",
      "outputs": [],
      "payable": false,
      "stateMutability": "nonpayable",
      "type": "function"
    },
    {
      "constant": true,
      "inputs": [],
      "name": "zombieCount",
      "outputs": [
        {
          "name": "",
          "type": "uint256"
        }
      ],
      "payable": false,
      "stateMutability": "view",
      "type": "function"
    },
    {
      "constant": false,
      "inputs": [],
      "name": "renounceOwnership",
      "outputs": [],
      "payable": false,
      "stateMutability": "nonpayable",
      "type": "function"
    },
    {
      "constant": false,
      "inputs": [
        {
          "name": "_name",
          "type": "string"
        }
      ],
      "name": "createRandomZombie",
      "outputs": [],
      "payable": true,
      "stateMutability": "payable",
      "type": "function"
    },
    {
      "constant": true,
      "inputs": [],
      "name": "zombiePrice",
      "outputs": [
        {
          "name": "",
          "type": "uint256"
        }
      ],
      "payable": false,
      "stateMutability": "view",
      "type": "function"
    },
    {
      "constant": true,
      "inputs": [],
      "name": "owner",
      "outputs": [
        {
          "name": "",
          "type": "address"
        }
      ],
      "payable": false,
      "stateMutability": "view",
      "type": "function"
    },
    {
      "constant": true,
      "inputs": [],
      "name": "isOwner",
      "outputs": [
        {
          "name": "",
          "type": "bool"
        }
      ],
      "payable": false,
      "stateMutability": "view",
      "type": "function"
    },
    {
      "constant": false,
      "inputs": [
        {
          "name": "_zombieId",
          "type": "uint256"
        },
        {
          "name": "_newName",
          "type": "string"
        }
      ],
      "name": "changeName",
      "outputs": [],
      "payable": false,
      "stateMutability": "nonpayable",
      "type": "function"
    },
    {
      "constant": false,
      "inputs": [
        {
          "name": "_fee",
          "type": "uint256"
        }
      ],
      "name": "setLevelUpFee",
      "outputs": [],
      "payable": false,
      "stateMutability": "nonpayable",
      "type": "function"
    },
    {
      "constant": false,
      "inputs": [
        {
          "name": "_zombieId",
          "type": "uint256"
        },
        {
          "name": "_targetId",
          "type": "uint256"
        }
      ],
      "name": "attack",
      "outputs": [],
      "payable": false,
      "stateMutability": "nonpayable",
      "type": "function"
    },
    {
      "constant": false,
      "inputs": [
        {
          "name": "newOwner",
          "type": "address"
        }
      ],
      "name": "transferOwnership",
      "outputs": [],
      "payable": false,
      "stateMutability": "nonpayable",
      "type": "function"
    },
    {
      "anonymous": false,
      "inputs": [
        {
          "indexed": true,
          "name": "_from",
          "type": "address"
        },
        {
          "indexed": true,
          "name": "_to",
          "type": "address"
        },
        {
          "indexed": true,
          "name": "_tokenId",
          "type": "uint256"
        }
      ],
      "name": "Transfer",
      "type": "event"
    },
    {
      "anonymous": false,
      "inputs": [
        {
          "indexed": true,
          "name": "_owner",
          "type": "address"
        },
        {
          "indexed": true,
          "name": "_approved",
          "type": "address"
        },
        {
          "indexed": true,
          "name": "_tokenId",
          "type": "uint256"
        }
      ],
      "name": "Approval",
      "type": "event"
    },
    {
      "anonymous": false,
      "inputs": [
        {
          "indexed": false,
          "name": "winnerId",
          "type": "uint256"
        },
        {
          "indexed": false,
          "name": "loserId",
          "type": "uint256"
        },
        {
          "indexed": false,
          "name": "didWin",
          "type": "bool"
        }
      ],
      "name": "AttackResult",
      "type": "event"
    },
    {
      "anonymous": false,
      "inputs": [
        {
          "indexed": false,
          "name": "zombieId",
          "type": "uint256"
        },
        {
          "indexed": false,
          "name": "name",
          "type": "string"
        },
        {
          "indexed": false,
          "name": "dna",
          "type": "uint256"
        }
      ],
      "name": "NewZombie",
      "type": "event"
    },
    {
      "anonymous": false,
      "inputs": [
        {
          "indexed": true,
          "name": "previousOwner",
          "type": "address"
        },
        {
          "indexed": true,
          "name": "newOwner",
          "type": "address"
        }
      ],
      "name": "OwnershipTransferred",
      "type": "event"
    },
    {
      "constant": true,
      "inputs": [
        {
          "name": "_owner",
          "type": "address"
        }
      ],
      "name": "balanceOf",
      "outputs": [
        {
          "name": "",
          "type": "uint256"
        }
      ],
      "payable": false,
      "stateMutability": "view",
      "type": "function"
    },
    {
      "constant": true,
      "inputs": [
        {
          "name": "_tokenId",
          "type": "uint256"
        }
      ],
      "name": "ownerOf",
      "outputs": [
        {
          "name": "",
          "type": "address"
        }
      ],
      "payable": false,
      "stateMutability": "view",
      "type": "function"
    },
    {
      "constant": false,
      "inputs": [
        {
          "name": "_from",
          "type": "address"
        },
        {
          "name": "_to",
          "type": "address"
        },
        {
          "name": "_tokenId",
          "type": "uint256"
        }
      ],
      "name": "transferFrom",
      "outputs": [],
      "payable": true,
      "stateMutability": "payable",
      "type": "function"
    },
    {
      "constant": false,
      "inputs": [
        {
          "name": "_approved",
          "type": "address"
        },
        {
          "name": "_tokenId",
          "type": "uint256"
        }
      ],
      "name": "approve",
      "outputs": [],
      "payable": true,
      "stateMutability": "payable",
      "type": "function"
    },
    {
      "constant": true,
      "inputs": [],
      "name": "getTopZombies",
      "outputs": [
        {
          "name": "",
          "type": "uint256[]"
        }
      ],
      "payable": false,
      "stateMutability": "view",
      "type": "function"
    }
  ],
  "bytecode": "0x60806040526010600155600154600a0a60025560006003556000600555662386f26fc1000060085566038d7ea4c68000600a556000600b556046600c55336000806101000a81548173ffffffffffffffffffffffffffffffffffffffff021916908373ffffffffffffffffffffffffffffffffffffffff1602179055506000809054906101000a900473ffffffffffffffffffffffffffffffffffffffff1673ffffffffffffffffffffffffffffffffffffffff16600073ffffffffffffffffffffffffffffffffffffffff167f8be0079c531659141344cd1fd0a4f28419497f9722a3daafe3b4186f6b6457e060405160405180910390a3612d2c806101076000396000f30060806040526004361061013e576000357c0100000000000000000000000000000000000000000000000000000000900463ffffffff168063095ea7b3146101435780630ce90ec21461018357806317a7f4cc146101a35780632052465e146101da57806323b872dd146102de5780633ccfd60b1461033e5780634412e104146103555780634b5a2c4d146103ed578063528b7b8f146104855780635f4623f1146104f25780635faf2880146105355780636352211e1461056c57806363721d6b146105d957806370a0823114610604578063715018a61461065b5780637bff0a011461067257806383d404d8146106ce5780638da5cb5b146106f95780638f32d59b14610750578063a501e3121461077f578063c39cbef1146107eb578063ccf670f814610830578063e1fa76381461085d578063f2fde38b14610894575b600080fd5b610181600480360381019080803573ffffffffffffffffffffffffffffffffffffffff169060200190929190803590602001909291905050506108d7565b005b6101a160048036038101908080359060200190929190505050610a60565b005b3480156101af57600080fd5b506101d86004803603810190808035906020019092919080359060200190929190505050610afb565b005b3480156101e657600080fd5b5061020560048036038101908080359060200190929190505050610d1c565b60405180806020018881526020018763ffffffff1663ffffffff1681526020018663ffffffff1663ffffffff1681526020018561ffff1661ffff1681526020018461ffff1661ffff1681526020018363ffffffff1663ffffffff168152602001828103825289818151815260200191508051906020019080838360005b8381101561029d578082015181840152602081019050610282565b50505050905090810190601f1680156102ca5780820380516001836020036101000a031916815260200191505b509850505050505050505060405180910390f35b61033c600480360381019080803573ffffffffffffffffffffffffffffffffffffffff169060200190929190803573ffffffffffffffffffffffffffffffffffffffff16906020019092919080359060200190929190505050610e51565b005b34801561034a57600080fd5b50610353610fdc565b005b34801561036157600080fd5b50610396600480360381019080803573ffffffffffffffffffffffffffffffffffffffff16906020019092919050505061105c565b6040518080602001828103825283818151815260200191508051906020019060200280838360005b838110156103d95780820151818401526020810190506103be565b505050509050019250505060405180910390f35b3480156103f957600080fd5b5061042e600480360381019080803573ffffffffffffffffffffffffffffffffffffffff16906020019092919050505061118e565b6040518080602001828103825283818151815260200191508051906020019060200280838360005b83811015610471578082015181840152602081019050610456565b505050509050019250505060405180910390f35b34801561049157600080fd5b506104b060048036038101908080359060200190929190505050611287565b604051808273ffffffffffffffffffffffffffffffffffffffff1673ffffffffffffffffffffffffffffffffffffffff16815260200191505060405180910390f35b3480156104fe57600080fd5b50610533600480360381019080803573ffffffffffffffffffffffffffffffffffffffff1690602001909291905050506112ba565b005b34801561054157600080fd5b5061056a6004803603810190808035906020019092919080359060200190929190505050611311565b005b34801561057857600080fd5b506105976004803603810190808035906020019092919050505061145c565b604051808273ffffffffffffffffffffffffffffffffffffffff1673ffffffffffffffffffffffffffffffffffffffff16815260200191505060405180910390f35b3480156105e557600080fd5b506105ee611499565b6040518082815260200191505060405180910390f35b34801561061057600080fd5b50610645600480360381019080803573ffffffffffffffffffffffffffffffffffffffff16906020019092919050505061149f565b6040518082815260200191505060405180910390f35b34801561066757600080fd5b506106706114e8565b005b6106cc600480360381019080803590602001908201803590602001908080601f01602080910402602001604051908101604052809392919081815260200183838082843782019150505050505091929192905050506115ba565b005b3480156106da57600080fd5b506106e361165f565b6040518082815260200191505060405180910390f35b34801561070557600080fd5b5061070e611665565b604051808273ffffffffffffffffffffffffffffffffffffffff1673ffffffffffffffffffffffffffffffffffffffff16815260200191505060405180910390f35b34801561075c57600080fd5b5061076561168e565b604051808215151515815260200191505060405180910390f35b34801561078b57600080fd5b506107946116e5565b6040518080602001828103825283818151815260200191508051906020019060200280838360005b838110156107d75780820151818401526020810190506107bc565b505050509050019250505060405180910390f35b3480156107f757600080fd5b5061082e600480360381019080803590602001909291908035906020019082018035906020019190919293919293905050506119a0565b005b34801561083c57600080fd5b5061085b60048036038101908080359060200190929190505050611af7565b005b34801561086957600080fd5b506108926004803603810190808035906020019092919080359060200190929190505050611b14565b005b3480156108a057600080fd5b506108d5600480360381019080803573ffffffffffffffffffffffffffffffffffffffff169060200190929190505050611f2a565b005b806006600082815260200190815260200160002060009054906101000a900473ffffffffffffffffffffffffffffffffffffffff1673ffffffffffffffffffffffffffffffffffffffff163373ffffffffffffffffffffffffffffffffffffffff161415156109ae576040517f08c379a00000000000000000000000000000000000000000000000000000000081526004018080602001828103825260198152602001807f596f75206d757374206f776e2074686973207a6f6d6269652e0000000000000081525060200191505060405180910390fd5b82600d600084815260200190815260200160002060006101000a81548173ffffffffffffffffffffffffffffffffffffffff021916908373ffffffffffffffffffffffffffffffffffffffff160217905550818373ffffffffffffffffffffffffffffffffffffffff163373ffffffffffffffffffffffffffffffffffffffff167f8c5be1e5ebec7d5bd14f71427d1e84f3dd0314c0f7b2291e5b200ac8c7c3b92560405160405180910390a4505050565b600a5434141515610a7057600080fd5b610aba6001600483815481101515610a8457fe5b906000526020600020906003020160020160009054906101000a900463ffffffff1663ffffffff16611f4990919063ffffffff16565b600482815481101515610ac957fe5b906000526020600020906003020160020160006101000a81548163ffffffff021916908363ffffffff16021790555050565b6000600960009054906101000a900473ffffffffffffffffffffffffffffffffffffffff1673ffffffffffffffffffffffffffffffffffffffff1663e98b7f4d836040518263ffffffff167c01000000000000000000000000000000000000000000000000000000000281526004018082815260200191505061014060405180830381600087803b158015610b8f57600080fd5b505af1158015610ba3573d6000803e3d6000fd5b505050506040513d610140811015610bba57600080fd5b810190808051906020019092919080519060200190929190805190602001909291908051906020019092919080519060200190929190805190602001909291908051906020019092919080519060200190929190805190602001909291908051906020019092919050505090919293949596979850909192939495969750909192939495965090919293949550909192939450909192935090919250909150905080915050600081111515610cd7576040517f08c379a00000000000000000000000000000000000000000000000000000000081526004018080602001828103825260148152602001807f4b6974747920646f6573206e6f7420657869737400000000000000000000000081525060200191505060405180910390fd5b610d1783826040805190810160405280600581526020017f6b69747479000000000000000000000000000000000000000000000000000000815250611f73565b505050565b600481815481101515610d2b57fe5b9060005260206000209060030201600091509050806000018054600181600116156101000203166002900480601f016020809104026020016040519081016040528092919081815260200182805460018160011615610100020316600290048015610dd75780601f10610dac57610100808354040283529160200191610dd7565b820191906000526020600020905b815481529060010190602001808311610dba57829003601f168201915b5050505050908060010154908060020160009054906101000a900463ffffffff16908060020160049054906101000a900463ffffffff16908060020160089054906101000a900461ffff169080600201600a9054906101000a900461ffff169080600201600c9054906101000a900463ffffffff16905087565b3373ffffffffffffffffffffffffffffffffffffffff166006600083815260200190815260200160002060009054906101000a900473ffffffffffffffffffffffffffffffffffffffff1673ffffffffffffffffffffffffffffffffffffffff161480610f1c57503373ffffffffffffffffffffffffffffffffffffffff16600d600083815260200190815260200160002060009054906101000a900473ffffffffffffffffffffffffffffffffffffffff1673ffffffffffffffffffffffffffffffffffffffff16145b1515610f90576040517f08c379a00000000000000000000000000000000000000000000000000000000081526004018080602001828103825260208152602001807f43616c6c6572206973206e6f74206f776e6572206e6f7220617070726f76656481525060200191505060405180910390fd5b600073ffffffffffffffffffffffffffffffffffffffff168273ffffffffffffffffffffffffffffffffffffffff1614151515610fcc57600080fd5b610fd78383836122f2565b505050565b6000610fe661168e565b1515610ff157600080fd5b610ff9611665565b90508073ffffffffffffffffffffffffffffffffffffffff166108fc3073ffffffffffffffffffffffffffffffffffffffff16319081150290604051600060405180830381858888f19350505050158015611058573d6000803e3d6000fd5b5050565b606080600080600760008673ffffffffffffffffffffffffffffffffffffffff1673ffffffffffffffffffffffffffffffffffffffff168152602001908152602001600020546040519080825280602002602001820160405280156110d05781602001602082028038833980820191505090505b50925060009150600090505b600480549050811015611183578473ffffffffffffffffffffffffffffffffffffffff166006600083815260200190815260200160002060009054906101000a900473ffffffffffffffffffffffffffffffffffffffff1673ffffffffffffffffffffffffffffffffffffffff1614156111765780838381518110151561115f57fe5b906020019060200201818152505081806001019250505b80806001019150506110dc565b829350505050919050565b6060806000806004805490506040519080825280602002602001820160405280156111c85781602001602082028038833980820191505090505b50925060009150600090505b60048054905081101561127c578473ffffffffffffffffffffffffffffffffffffffff166006600083815260200190815260200160002060009054906101000a900473ffffffffffffffffffffffffffffffffffffffff1673ffffffffffffffffffffffffffffffffffffffff1614151561126f5780838381518110151561125857fe5b906020019060200201818152505081806001019250505b80806001019150506111d4565b829350505050919050565b60066020528060005260406000206000915054906101000a900473ffffffffffffffffffffffffffffffffffffffff1681565b6112c261168e565b15156112cd57600080fd5b80600960006101000a81548173ffffffffffffffffffffffffffffffffffffffff021916908373ffffffffffffffffffffffffffffffffffffffff16021790555050565b6014828160048281548110151561132457fe5b906000526020600020906003020160020160009054906101000a900463ffffffff1663ffffffff161015151561135957600080fd5b836006600082815260200190815260200160002060009054906101000a900473ffffffffffffffffffffffffffffffffffffffff1673ffffffffffffffffffffffffffffffffffffffff163373ffffffffffffffffffffffffffffffffffffffff16141515611430576040517f08c379a00000000000000000000000000000000000000000000000000000000081526004018080602001828103825260198152602001807f596f75206d757374206f776e2074686973207a6f6d6269652e0000000000000081525060200191505060405180910390fd5b8360048681548110151561144057fe5b9060005260206000209060030201600101819055505050505050565b60006006600083815260200190815260200160002060009054906101000a900473ffffffffffffffffffffffffffffffffffffffff169050919050565b60055481565b6000600760008373ffffffffffffffffffffffffffffffffffffffff1673ffffffffffffffffffffffffffffffffffffffff168152602001908152602001600020549050919050565b6114f061168e565b15156114fb57600080fd5b600073ffffffffffffffffffffffffffffffffffffffff166000809054906101000a900473ffffffffffffffffffffffffffffffffffffffff1673ffffffffffffffffffffffffffffffffffffffff167f8be0079c531659141344cd1fd0a4f28419497f9722a3daafe3b4186f6b6457e060405160405180910390a360008060006101000a81548173ffffffffffffffffffffffffffffffffffffffff021916908373ffffffffffffffffffffffffffffffffffffffff160217905550565b600060085434141515611635576040517f08c379a000000000000000000000000000000000000000000000000000000000815260040180806020018281038252601a8152602001807f496e636f72726563742045746865722076616c75652073656e7400000000000081525060200191505060405180910390fd5b61163e8261255f565b905060648181151561164c57fe5b068103905061165b828261264d565b5050565b60085481565b60008060009054906101000a900473ffffffffffffffffffffffffffffffffffffffff16905090565b60008060009054906101000a900473ffffffffffffffffffffffffffffffffffffffff1673ffffffffffffffffffffffffffffffffffffffff163373ffffffffffffffffffffffffffffffffffffffff1614905090565b6060600060606000806000806000806000806000806004805490509b508b6040519080825280602002602001820160405280156117315781602001602082028038833980820191505090505b509a50600099505b8b8a101561176b57898b8b81518110151561175057fe5b906020019060200201818152505089806001019a5050611739565b600098505b60018c0389101561198e576001890197505b8b8810156119815760048b8a81518110151561179a57fe5b906020019060200201518154811015156117b057fe5b906000526020600020906003020160020160089054906101000a900461ffff1661ffff16965060048b8a8151811015156117e657fe5b906020019060200201518154811015156117fc57fe5b9060005260206000209060030201600201600a9054906101000a900461ffff1661ffff16955060048b8981518110151561183257fe5b9060200190602002015181548110151561184857fe5b906000526020600020906003020160020160089054906101000a900461ffff1661ffff16945060048b8981518110151561187e57fe5b9060200190602002015181548110151561189457fe5b9060005260206000209060030201600201600a9054906101000a900461ffff1661ffff169350600086146118d65785606488028115156118d057fe5b046118db565b606487025b9250600084146118f95783606486028115156118f357fe5b046118fe565b606485025b915082821115611974578a8981518110151561191657fe5b9060200190602002015190508a8881518110151561193057fe5b906020019060200201518b8a81518110151561194857fe5b9060200190602002018181525050808b8981518110151561196557fe5b90602001906020020181815250505b8780600101985050611782565b8880600101995050611770565b8a9c5050505050505050505050505090565b600283816004828154811015156119b357fe5b906000526020600020906003020160020160009054906101000a900463ffffffff1663ffffffff16101515156119e857600080fd5b846006600082815260200190815260200160002060009054906101000a900473ffffffffffffffffffffffffffffffffffffffff1673ffffffffffffffffffffffffffffffffffffffff163373ffffffffffffffffffffffffffffffffffffffff16141515611abf576040517f08c379a00000000000000000000000000000000000000000000000000000000081526004018080602001828103825260198152602001807f596f75206d757374206f776e2074686973207a6f6d6269652e0000000000000081525060200191505060405180910390fd5b8484600488815481101515611ad057fe5b90600052602060002090600302016000019190611aee929190612bdb565b50505050505050565b611aff61168e565b1515611b0a57600080fd5b80600a8190555050565b6000806000846006600082815260200190815260200160002060009054906101000a900473ffffffffffffffffffffffffffffffffffffffff1673ffffffffffffffffffffffffffffffffffffffff163373ffffffffffffffffffffffffffffffffffffffff16141515611bf0576040517f08c379a00000000000000000000000000000000000000000000000000000000081526004018080602001828103825260198152602001807f596f75206d757374206f776e2074686973207a6f6d6269652e0000000000000081525060200191505060405180910390fd5b600486815481101515611bff57fe5b90600052602060002090600302019350600485815481101515611c1e57fe5b90600052602060002090600302019250611c3784612960565b1515611cd1576040517f08c379a00000000000000000000000000000000000000000000000000000000081526004018080602001828103825260248152602001807f596f7572207a6f6d626965206973206e6f7420726561647920666f722061747481526020017f61636b2e0000000000000000000000000000000000000000000000000000000081525060400191505060405180910390fd5b611cdb6064612987565b9150600c5482111515611de45783600201600881819054906101000a900461ffff168092919060010191906101000a81548161ffff021916908361ffff1602179055505083600201600081819054906101000a900463ffffffff168092919060010191906101000a81548163ffffffff021916908363ffffffff1602179055505082600201600a81819054906101000a900461ffff168092919060010191906101000a81548161ffff021916908361ffff160217905550507f62e95de997a5e59baaf3b3561de85a4b33ba194659ced4daeb93523e0dd27a65868660016040518084815260200183815260200182151515158152602001935050505060405180910390a1611e9f565b83600201600a81819054906101000a900461ffff168092919060010191906101000a81548161ffff021916908361ffff1602179055505082600201600881819054906101000a900461ffff168092919060010191906101000a81548161ffff021916908361ffff160217905550507f62e95de997a5e59baaf3b3561de85a4b33ba194659ced4daeb93523e0dd27a65858760006040518084815260200183815260200182151515158152602001935050505060405180910390a15b83600201600c81819054906101000a900463ffffffff168092919060010191906101000a81548163ffffffff021916908363ffffffff1602179055505082600201600c81819054906101000a900463ffffffff168092919060010191906101000a81548163ffffffff021916908363ffffffff16021790555050611f2284612a80565b505050505050565b611f3261168e565b1515611f3d57600080fd5b611f4681612aaa565b50565b60008082840190508363ffffffff168163ffffffff1610151515611f6957fe5b8091505092915050565b600080846006600082815260200190815260200160002060009054906101000a900473ffffffffffffffffffffffffffffffffffffffff1673ffffffffffffffffffffffffffffffffffffffff163373ffffffffffffffffffffffffffffffffffffffff1614151561204d576040517f08c379a00000000000000000000000000000000000000000000000000000000081526004018080602001828103825260198152602001807f596f75206d757374206f776e2074686973207a6f6d6269652e0000000000000081525060200191505060405180910390fd5b60048681548110151561205c57fe5b9060005260206000209060030201925061207583612960565b15156120e9576040517f08c379a00000000000000000000000000000000000000000000000000000000081526004018080602001828103825260188152602001807f5a6f6d626965206973206e6f74207265616479207965742e000000000000000081525060200191505060405180910390fd5b600254858115156120f657fe5b06945060028584600101540181151561210b57fe5b04915060405160200180807f6b6974747900000000000000000000000000000000000000000000000000000081525060050190506040516020818303038152906040526040518082805190602001908083835b602083101515612183578051825260208201915060208101905060208303925061215e565b6001836020036101000a038019825116818451168082178552505050505050905001915050604051809103902060001916846040516020018082805190602001908083835b6020831015156121ed57805182526020820191506020810190506020830392506121c8565b6001836020036101000a0380198251168184511680821785525050505050509050019150506040516020818303038152906040526040518082805190602001908083835b6020831015156122565780518252602082019150602081019050602083039250612231565b6001836020036101000a03801982511681845116808217855250505050505090500191505060405180910390206000191614156122a257606360648381151561229b57fe5b0683030191505b6122e16040805190810160405280600681526020017f4e6f4e616d6500000000000000000000000000000000000000000000000000008152508361264d565b6122ea83612a80565b505050505050565b600073ffffffffffffffffffffffffffffffffffffffff168273ffffffffffffffffffffffffffffffffffffffff161415151561232e57600080fd5b6123816001600760008573ffffffffffffffffffffffffffffffffffffffff1673ffffffffffffffffffffffffffffffffffffffff16815260200190815260200160002054612ba490919063ffffffff16565b600760008473ffffffffffffffffffffffffffffffffffffffff1673ffffffffffffffffffffffffffffffffffffffff168152602001908152602001600020819055506124176001600760008673ffffffffffffffffffffffffffffffffffffffff1673ffffffffffffffffffffffffffffffffffffffff16815260200190815260200160002054612bc290919063ffffffff16565b600760008573ffffffffffffffffffffffffffffffffffffffff1673ffffffffffffffffffffffffffffffffffffffff16815260200190815260200160002081905550816006600083815260200190815260200160002060006101000a81548173ffffffffffffffffffffffffffffffffffffffff021916908373ffffffffffffffffffffffffffffffffffffffff1602179055506000600d600083815260200190815260200160002060006101000a81548173ffffffffffffffffffffffffffffffffffffffff021916908373ffffffffffffffffffffffffffffffffffffffff160217905550808273ffffffffffffffffffffffffffffffffffffffff168473ffffffffffffffffffffffffffffffffffffffff167fddf252ad1be2c89b69c2b068fc378daa952ba7f163c4a11628f55a4df523b3ef60405160405180910390a4505050565b600080826040516020018082805190602001908083835b60208310151561259b5780518252602082019150602081019050602083039250612576565b6001836020036101000a0380198251168184511680821785525050505050509050019150506040516020818303038152906040526040518082805190602001908083835b60208310151561260457805182526020820191506020810190506020830392506125df565b6001836020036101000a03801982511681845116808217855250505050505090500191505060405180910390206001900490506002548181151561264457fe5b06915050919050565b60006001600460e060405190810160405280868152602001858152602001600163ffffffff168152602001600354420163ffffffff168152602001600061ffff168152602001600061ffff168152602001600063ffffffff168152509080600181540180825580915050906001820390600052602060002090600302016000909192909190915060008201518160000190805190602001906126f0929190612c5b565b506020820151816001015560408201518160020160006101000a81548163ffffffff021916908363ffffffff16021790555060608201518160020160046101000a81548163ffffffff021916908363ffffffff16021790555060808201518160020160086101000a81548161ffff021916908361ffff16021790555060a082015181600201600a6101000a81548161ffff021916908361ffff16021790555060c082015181600201600c6101000a81548163ffffffff021916908363ffffffff1602179055505050039050336006600083815260200190815260200160002060006101000a81548173ffffffffffffffffffffffffffffffffffffffff021916908373ffffffffffffffffffffffffffffffffffffffff1602179055506128606001600760003373ffffffffffffffffffffffffffffffffffffffff1673ffffffffffffffffffffffffffffffffffffffff16815260200190815260200160002054612ba490919063ffffffff16565b600760003373ffffffffffffffffffffffffffffffffffffffff1673ffffffffffffffffffffffffffffffffffffffff168152602001908152602001600020819055506004805490506005819055507f88f026aacbbecc90c18411df4b1185fd8d9be2470f1962f192bf84a27d0704b78184846040518084815260200180602001838152602001828103825284818151815260200191508051906020019080838360005b8381101561291f578082015181840152602081019050612904565b50505050905090810190601f16801561294c5780820380516001836020036101000a031916815260200191505b5094505050505060405180910390a1505050565b6000428260020160049054906101000a900463ffffffff1663ffffffff1611159050919050565b6000600b60008154809291906001019190505550814233600b54604051602001808481526020018373ffffffffffffffffffffffffffffffffffffffff1673ffffffffffffffffffffffffffffffffffffffff166c0100000000000000000000000002815260140182815260200193505050506040516020818303038152906040526040518082805190602001908083835b602083101515612a3e5780518252602082019150602081019050602083039250612a19565b6001836020036101000a038019825116818451168082178552505050505050905001915050604051809103902060019004811515612a7857fe5b069050919050565b60035442018160020160046101000a81548163ffffffff021916908363ffffffff16021790555050565b600073ffffffffffffffffffffffffffffffffffffffff168173ffffffffffffffffffffffffffffffffffffffff1614151515612ae657600080fd5b8073ffffffffffffffffffffffffffffffffffffffff166000809054906101000a900473ffffffffffffffffffffffffffffffffffffffff1673ffffffffffffffffffffffffffffffffffffffff167f8be0079c531659141344cd1fd0a4f28419497f9722a3daafe3b4186f6b6457e060405160405180910390a3806000806101000a81548173ffffffffffffffffffffffffffffffffffffffff021916908373ffffffffffffffffffffffffffffffffffffffff16021790555050565b6000808284019050838110151515612bb857fe5b8091505092915050565b6000828211151515612bd057fe5b818303905092915050565b828054600181600116156101000203166002900490600052602060002090601f016020900481019282601f10612c1c57803560ff1916838001178555612c4a565b82800160010185558215612c4a579182015b82811115612c49578235825591602001919060010190612c2e565b5b509050612c579190612cdb565b5090565b828054600181600116156101000203166002900490600052602060002090601f016020900481019282601f10612c9c57805160ff1916838001178555612cca565b82800160010185558215612cca579182015b82811115612cc9578251825591602001919060010190612cae565b5b509050612cd79190612cdb565b5090565b612cfd91905b80821115612cf9576000816000905550600101612ce1565b5090565b905600a165627a7a723058201adcc1bd2d1c61e9d9938739a8ee84b9bbfc0fde6db9a47d6f11b5af686af3570029",
  "source": "pragma solidity ^0.4.25;\r\n\r\nimport \"./zombieattack.sol\";\r\nimport \"./ERC721.sol\";\r\nimport \"./safemath.sol\";\r\n\r\ncontract ZombieOwnership is ZombieAttack, ERC721 {\r\n    using SafeMath for uint256;\r\n\r\n     // Define the onlyOwnerOf modifier here\r\n    modifier onlyOwnerOf(uint _zombieId) {\r\n        require(msg.sender == zombieToOwner[_zombieId], \"You must own this zombie.\");\r\n        _;\r\n    }\r\n\r\n    mapping(uint => address) zombieApprovals;\r\n\r\n    function balanceOf(address _owner) external view returns (uint256) {\r\n        return ownerZombieCount[_owner];\r\n    }\r\n\r\n    function ownerOf(uint256 _tokenId) external view returns (address) {\r\n        return zombieToOwner[_tokenId];\r\n    }\r\n\r\n    function _transfer(address _from, address _to, uint256 _tokenId) private {\r\n        require(_to != address(0)); // Prevent transfer to the zero address\r\n        ownerZombieCount[_to] = ownerZombieCount[_to].add(1);\r\n        ownerZombieCount[_from] = ownerZombieCount[_from].sub(1);\r\n        zombieToOwner[_tokenId] = _to;\r\n        zombieApprovals[_tokenId] = address(0); // Clear approvals after transfer\r\n        emit Transfer(_from, _to, _tokenId);\r\n    }\r\n\r\n    function transferFrom(\r\n        address _from,\r\n        address _to,\r\n        uint256 _tokenId\r\n    ) external payable {\r\n        require(\r\n            zombieToOwner[_tokenId] == msg.sender ||\r\n            zombieApprovals[_tokenId] == msg.sender,\r\n            \"Caller is not owner nor approved\"\r\n        );\r\n        require(_to != address(0)); // Prevent transfer to the zero address\r\n        _transfer(_from, _to, _tokenId);\r\n    }\r\n\r\n    function approve(\r\n        address _approved,\r\n        uint256 _tokenId\r\n    ) external payable onlyOwnerOf(_tokenId) {\r\n        zombieApprovals[_tokenId] = _approved;\r\n        emit Approval(msg.sender, _approved, _tokenId);\r\n    }\r\n\r\n    function getTopZombies() public view returns (uint[] memory) {\r\n        uint length = zombies.length;\r\n        uint[] memory topZombies = new uint[](length);\r\n\r\n        // Fill the array with zombie IDs.\r\n        for (uint i = 0; i < length; i++) {\r\n            topZombies[i] = i;\r\n        }\r\n\r\n        // Sort the array based on win/loss ratio.\r\n        // If a zombie has 0 losses, consider it as a high rank (undefeated).\r\n        for (uint k = 0; k < length - 1; k++) {\r\n            for (uint j = k + 1; j < length; j++) {\r\n                uint winsA = zombies[topZombies[k]].winCount;\r\n                uint lossesA = zombies[topZombies[k]].lossCount;\r\n                uint winsB = zombies[topZombies[j]].winCount;\r\n                uint lossesB = zombies[topZombies[j]].lossCount;\r\n\r\n                // Calculate win/loss ratios (handle division by zero).\r\n                uint ratioA = (lossesA == 0) ? winsA * 100 : (winsA * 100) / lossesA;\r\n                uint ratioB = (lossesB == 0) ? winsB * 100 : (winsB * 100) / lossesB;\r\n\r\n                // Sort in descending order of win/loss ratio.\r\n                if (ratioB > ratioA) {\r\n                    uint temp = topZombies[k];\r\n                    topZombies[k] = topZombies[j];\r\n                    topZombies[j] = temp;\r\n                }\r\n            }\r\n        }\r\n\r\n        return topZombies;\r\n    }\r\n}\r\n",
  "sourcePath": "C:\\Users\\sagar\\Downloads\\blockchain-midterm\\contracts\\zombieownership.sol",
  "compiler": {
    "name": "solc",
    "version": "0.4.25+commit.59dbf8f1.Emscripten.clang"
  },
  "schemaVersion": "3.4.16",
  "updatedAt": "2024-10-21T04:03:22.336Z",
  "networkType": "ethereum",
  "devdoc": {
    "methods": {
      "isOwner()": {
        "return": "true if `msg.sender` is the owner of the contract.\r"
      },
      "owner()": {
        "return": "the address of the owner.\r"
      },
      "renounceOwnership()": {
        "details": "Allows the current owner to relinquish control of the contract.\r"
      },
      "transferOwnership(address)": {
        "details": "Allows the current owner to transfer control of the contract to a newOwner.\r",
        "params": {
          "newOwner": "The address to transfer ownership to.\r"
        }
      }
    }
  },
  "userdoc": {
    "methods": {
      "renounceOwnership()": {
        "notice": "Renouncing to ownership will leave the contract without an owner.\r It will not be possible to call the functions with the `onlyOwner`\r modifier anymore.\r"
      }
    }
  }
}