{
  "contractName": "ZombieFactory",
  "abi": [
    {
      "constant": true,
      "inputs": [
        {
          "name": "",
          "type": "uint256"
        }
      ],
      "name": "zombies",
      "outputs": [
        {
          "name": "name",
          "type": "string"
        },
        {
          "name": "dna",
          "type": "uint256"
        },
        {
          "name": "level",
          "type": "uint32"
        },
        {
          "name": "readyTime",
          "type": "uint32"
        },
        {
          "name": "winCount",
          "type": "uint16"
        },
        {
          "name": "lossCount",
          "type": "uint16"
        },
        {
          "name": "totalBattles",
          "type": "uint32"
        }
      ],
      "payable": false,
      "stateMutability": "view",
      "type": "function"
    },
    {
      "constant": true,
      "inputs": [
        {
          "name": "",
          "type": "uint256"
        }
      ],
      "name": "zombieToOwner",
      "outputs": [
        {
          "name": "",
          "type": "address"
        }
      ],
      "payable": false,
      "stateMutability": "view",
      "type": "function"
    },
    {
      "constant": true,
      "inputs": [],
      "name": "zombieCount",
      "outputs": [
        {
          "name": "",
          "type": "uint256"
        }
      ],
      "payable": false,
      "stateMutability": "view",
      "type": "function"
    },
    {
      "constant": false,
      "inputs": [],
      "name": "renounceOwnership",
      "outputs": [],
      "payable": false,
      "stateMutability": "nonpayable",
      "type": "function"
    },
    {
      "constant": true,
      "inputs": [],
      "name": "zombiePrice",
      "outputs": [
        {
          "name": "",
          "type": "uint256"
        }
      ],
      "payable": false,
      "stateMutability": "view",
      "type": "function"
    },
    {
      "constant": true,
      "inputs": [],
      "name": "owner",
      "outputs": [
        {
          "name": "",
          "type": "address"
        }
      ],
      "payable": false,
      "stateMutability": "view",
      "type": "function"
    },
    {
      "constant": true,
      "inputs": [],
      "name": "isOwner",
      "outputs": [
        {
          "name": "",
          "type": "bool"
        }
      ],
      "payable": false,
      "stateMutability": "view",
      "type": "function"
    },
    {
      "constant": false,
      "inputs": [
        {
          "name": "newOwner",
          "type": "address"
        }
      ],
      "name": "transferOwnership",
      "outputs": [],
      "payable": false,
      "stateMutability": "nonpayable",
      "type": "function"
    },
    {
      "anonymous": false,
      "inputs": [
        {
          "indexed": false,
          "name": "zombieId",
          "type": "uint256"
        },
        {
          "indexed": false,
          "name": "name",
          "type": "string"
        },
        {
          "indexed": false,
          "name": "dna",
          "type": "uint256"
        }
      ],
      "name": "NewZombie",
      "type": "event"
    },
    {
      "anonymous": false,
      "inputs": [
        {
          "indexed": true,
          "name": "previousOwner",
          "type": "address"
        },
        {
          "indexed": true,
          "name": "newOwner",
          "type": "address"
        }
      ],
      "name": "OwnershipTransferred",
      "type": "event"
    },
    {
      "constant": false,
      "inputs": [
        {
          "name": "_name",
          "type": "string"
        }
      ],
      "name": "createRandomZombie",
      "outputs": [],
      "payable": true,
      "stateMutability": "payable",
      "type": "function"
    }
  ],
  "bytecode": "0x60806040526010600155600154600a0a60025560006003556000600555662386f26fc10000600855336000806101000a81548173ffffffffffffffffffffffffffffffffffffffff021916908373ffffffffffffffffffffffffffffffffffffffff1602179055506000809054906101000a900473ffffffffffffffffffffffffffffffffffffffff1673ffffffffffffffffffffffffffffffffffffffff16600073ffffffffffffffffffffffffffffffffffffffff167f8be0079c531659141344cd1fd0a4f28419497f9722a3daafe3b4186f6b6457e060405160405180910390a3610d15806100f26000396000f300608060405260043610610099576000357c0100000000000000000000000000000000000000000000000000000000900463ffffffff1680632052465e1461009e578063528b7b8f146101a257806363721d6b1461020f578063715018a61461023a5780637bff0a011461025157806383d404d8146102ad5780638da5cb5b146102d85780638f32d59b1461032f578063f2fde38b1461035e575b600080fd5b3480156100aa57600080fd5b506100c9600480360381019080803590602001909291905050506103a1565b60405180806020018881526020018763ffffffff1663ffffffff1681526020018663ffffffff1663ffffffff1681526020018561ffff1661ffff1681526020018461ffff1661ffff1681526020018363ffffffff1663ffffffff168152602001828103825289818151815260200191508051906020019080838360005b83811015610161578082015181840152602081019050610146565b50505050905090810190601f16801561018e5780820380516001836020036101000a031916815260200191505b509850505050505050505060405180910390f35b3480156101ae57600080fd5b506101cd600480360381019080803590602001909291905050506104d6565b604051808273ffffffffffffffffffffffffffffffffffffffff1673ffffffffffffffffffffffffffffffffffffffff16815260200191505060405180910390f35b34801561021b57600080fd5b50610224610509565b6040518082815260200191505060405180910390f35b34801561024657600080fd5b5061024f61050f565b005b6102ab600480360381019080803590602001908201803590602001908080601f01602080910402602001604051908101604052809392919081815260200183838082843782019150505050505091929192905050506105e1565b005b3480156102b957600080fd5b506102c2610686565b6040518082815260200191505060405180910390f35b3480156102e457600080fd5b506102ed61068c565b604051808273ffffffffffffffffffffffffffffffffffffffff1673ffffffffffffffffffffffffffffffffffffffff16815260200191505060405180910390f35b34801561033b57600080fd5b506103446106b5565b604051808215151515815260200191505060405180910390f35b34801561036a57600080fd5b5061039f600480360381019080803573ffffffffffffffffffffffffffffffffffffffff16906020019092919050505061070c565b005b6004818154811015156103b057fe5b9060005260206000209060030201600091509050806000018054600181600116156101000203166002900480601f01602080910402602001604051908101604052809291908181526020018280546001816001161561010002031660029004801561045c5780601f106104315761010080835404028352916020019161045c565b820191906000526020600020905b81548152906001019060200180831161043f57829003601f168201915b5050505050908060010154908060020160009054906101000a900463ffffffff16908060020160049054906101000a900463ffffffff16908060020160089054906101000a900461ffff169080600201600a9054906101000a900461ffff169080600201600c9054906101000a900463ffffffff16905087565b60066020528060005260406000206000915054906101000a900473ffffffffffffffffffffffffffffffffffffffff1681565b60055481565b6105176106b5565b151561052257600080fd5b600073ffffffffffffffffffffffffffffffffffffffff166000809054906101000a900473ffffffffffffffffffffffffffffffffffffffff1673ffffffffffffffffffffffffffffffffffffffff167f8be0079c531659141344cd1fd0a4f28419497f9722a3daafe3b4186f6b6457e060405160405180910390a360008060006101000a81548173ffffffffffffffffffffffffffffffffffffffff021916908373ffffffffffffffffffffffffffffffffffffffff160217905550565b60006008543414151561065c576040517f08c379a000000000000000000000000000000000000000000000000000000000815260040180806020018281038252601a8152602001807f496e636f72726563742045746865722076616c75652073656e7400000000000081525060200191505060405180910390fd5b6106658261072b565b905060648181151561067357fe5b06810390506106828282610819565b5050565b60085481565b60008060009054906101000a900473ffffffffffffffffffffffffffffffffffffffff16905090565b60008060009054906101000a900473ffffffffffffffffffffffffffffffffffffffff1673ffffffffffffffffffffffffffffffffffffffff163373ffffffffffffffffffffffffffffffffffffffff1614905090565b6107146106b5565b151561071f57600080fd5b61072881610b2c565b50565b600080826040516020018082805190602001908083835b6020831015156107675780518252602082019150602081019050602083039250610742565b6001836020036101000a0380198251168184511680821785525050505050509050019150506040516020818303038152906040526040518082805190602001908083835b6020831015156107d057805182526020820191506020810190506020830392506107ab565b6001836020036101000a03801982511681845116808217855250505050505090500191505060405180910390206001900490506002548181151561081057fe5b06915050919050565b60006001600460e060405190810160405280868152602001858152602001600163ffffffff168152602001600354420163ffffffff168152602001600061ffff168152602001600061ffff168152602001600063ffffffff168152509080600181540180825580915050906001820390600052602060002090600302016000909192909190915060008201518160000190805190602001906108bc929190610c44565b506020820151816001015560408201518160020160006101000a81548163ffffffff021916908363ffffffff16021790555060608201518160020160046101000a81548163ffffffff021916908363ffffffff16021790555060808201518160020160086101000a81548161ffff021916908361ffff16021790555060a082015181600201600a6101000a81548161ffff021916908361ffff16021790555060c082015181600201600c6101000a81548163ffffffff021916908363ffffffff1602179055505050039050336006600083815260200190815260200160002060006101000a81548173ffffffffffffffffffffffffffffffffffffffff021916908373ffffffffffffffffffffffffffffffffffffffff160217905550610a2c6001600760003373ffffffffffffffffffffffffffffffffffffffff1673ffffffffffffffffffffffffffffffffffffffff16815260200190815260200160002054610c2690919063ffffffff16565b600760003373ffffffffffffffffffffffffffffffffffffffff1673ffffffffffffffffffffffffffffffffffffffff168152602001908152602001600020819055506004805490506005819055507f88f026aacbbecc90c18411df4b1185fd8d9be2470f1962f192bf84a27d0704b78184846040518084815260200180602001838152602001828103825284818151815260200191508051906020019080838360005b83811015610aeb578082015181840152602081019050610ad0565b50505050905090810190601f168015610b185780820380516001836020036101000a031916815260200191505b5094505050505060405180910390a1505050565b600073ffffffffffffffffffffffffffffffffffffffff168173ffffffffffffffffffffffffffffffffffffffff1614151515610b6857600080fd5b8073ffffffffffffffffffffffffffffffffffffffff166000809054906101000a900473ffffffffffffffffffffffffffffffffffffffff1673ffffffffffffffffffffffffffffffffffffffff167f8be0079c531659141344cd1fd0a4f28419497f9722a3daafe3b4186f6b6457e060405160405180910390a3806000806101000a81548173ffffffffffffffffffffffffffffffffffffffff021916908373ffffffffffffffffffffffffffffffffffffffff16021790555050565b6000808284019050838110151515610c3a57fe5b8091505092915050565b828054600181600116156101000203166002900490600052602060002090601f016020900481019282601f10610c8557805160ff1916838001178555610cb3565b82800160010185558215610cb3579182015b82811115610cb2578251825591602001919060010190610c97565b5b509050610cc09190610cc4565b5090565b610ce691905b80821115610ce2576000816000905550600101610cca565b5090565b905600a165627a7a72305820a502e19b17c9be57bfc49c9447ae4359d9dc479c0f4f697af57e96cdc4634d590029",
  "source": "pragma solidity ^0.4.25;\r\n\r\nimport \"./ownable.sol\";\r\nimport \"./safemath.sol\";\r\n\r\ncontract ZombieFactory is Ownable {\r\n\r\n  using SafeMath for uint256;\r\n  using SafeMath32 for uint32;\r\n  using SafeMath16 for uint16;\r\n\r\n  event NewZombie(uint zombieId, string name, uint dna);\r\n\r\n  uint dnaDigits = 16;\r\n  uint dnaModulus = 10 ** dnaDigits;\r\n  uint cooldownTime = 0 days;\r\n\r\n struct Zombie {\r\n    string name;\r\n    uint dna;\r\n    uint32 level;\r\n    uint32 readyTime;\r\n    uint16 winCount;\r\n    uint16 lossCount;\r\n    uint32 totalBattles;\r\n}\r\n\r\n  Zombie[] public zombies;\r\n  uint public zombieCount = 0;  // New variable to keep track of total number of zombies\r\n\r\n  mapping (uint => address) public zombieToOwner;\r\n  mapping (address => uint) ownerZombieCount;\r\n\r\n  function _createZombie(string _name, uint _dna) internal {\r\n    uint id = zombies.push(Zombie(_name, _dna, 1, uint32(now + cooldownTime), 0, 0, 0)) - 1;\r\n    zombieToOwner[id] = msg.sender;\r\n    ownerZombieCount[msg.sender] = ownerZombieCount[msg.sender].add(1);\r\n    zombieCount = zombies.length;  // Update the zombie count\r\n    emit NewZombie(id, _name, _dna);\r\n  }\r\n\r\n  function _generateRandomDna(string _str) private view returns (uint) {\r\n    uint rand = uint(keccak256(abi.encodePacked(_str)));\r\n    return rand % dnaModulus;\r\n  }\r\n\r\n  uint public zombiePrice = 0.01 ether;\r\n\r\n  function createRandomZombie(string _name) public payable {\r\n    require(msg.value == zombiePrice, \"Incorrect Ether value sent\");\r\n    uint randDna = _generateRandomDna(_name);\r\n    randDna = randDna - randDna % 100;\r\n    _createZombie(_name, randDna);\r\n  }\r\n}\r\n",
  "sourcePath": "C:\\Users\\sagar\\Downloads\\blockchain-midterm\\contracts\\zombiefactory.sol",
  "compiler": {
    "name": "solc",
    "version": "0.4.25+commit.59dbf8f1.Emscripten.clang"
  },
  "schemaVersion": "3.4.16",
  "updatedAt": "2024-10-21T04:03:22.324Z",
  "networkType": "ethereum",
  "devdoc": {
    "methods": {
      "isOwner()": {
        "return": "true if `msg.sender` is the owner of the contract.\r"
      },
      "owner()": {
        "return": "the address of the owner.\r"
      },
      "renounceOwnership()": {
        "details": "Allows the current owner to relinquish control of the contract.\r"
      },
      "transferOwnership(address)": {
        "details": "Allows the current owner to transfer control of the contract to a newOwner.\r",
        "params": {
          "newOwner": "The address to transfer ownership to.\r"
        }
      }
    }
  },
  "userdoc": {
    "methods": {
      "renounceOwnership()": {
        "notice": "Renouncing to ownership will leave the contract without an owner.\r It will not be possible to call the functions with the `onlyOwner`\r modifier anymore.\r"
      }
    }
  }
}